{
  "contractName": "ExponentLib",
  "abi": [
    {
      "constant": true,
      "inputs": [],
      "name": "fixedExp10",
      "outputs": [
        {
          "internalType": "int256",
          "name": "",
          "type": "int256"
        }
      ],
      "payable": false,
      "stateMutability": "pure",
      "type": "function"
    },
    {
      "constant": true,
      "inputs": [],
      "name": "fixedE",
      "outputs": [
        {
          "internalType": "int256",
          "name": "",
          "type": "int256"
        }
      ],
      "payable": false,
      "stateMutability": "pure",
      "type": "function"
    },
    {
      "constant": true,
      "inputs": [
        {
          "internalType": "int256",
          "name": "a",
          "type": "int256"
        },
        {
          "internalType": "int256",
          "name": "b",
          "type": "int256"
        }
      ],
      "name": "powerAny",
      "outputs": [
        {
          "internalType": "int256",
          "name": "",
          "type": "int256"
        }
      ],
      "payable": false,
      "stateMutability": "pure",
      "type": "function"
    },
    {
      "constant": true,
      "inputs": [
        {
          "internalType": "int256",
          "name": "a",
          "type": "int256"
        },
        {
          "internalType": "int256",
          "name": "b",
          "type": "int256"
        }
      ],
      "name": "rootAny",
      "outputs": [
        {
          "internalType": "int256",
          "name": "",
          "type": "int256"
        }
      ],
      "payable": false,
      "stateMutability": "pure",
      "type": "function"
    },
    {
      "constant": true,
      "inputs": [
        {
          "internalType": "int256",
          "name": "a",
          "type": "int256"
        },
        {
          "internalType": "uint8",
          "name": "n",
          "type": "uint8"
        }
      ],
      "name": "rootN",
      "outputs": [
        {
          "internalType": "int256",
          "name": "",
          "type": "int256"
        }
      ],
      "payable": false,
      "stateMutability": "pure",
      "type": "function"
    },
    {
      "constant": true,
      "inputs": [
        {
          "internalType": "int256",
          "name": "_v",
          "type": "int256"
        },
        {
          "internalType": "uint8",
          "name": "digits",
          "type": "uint8"
        }
      ],
      "name": "round_off",
      "outputs": [
        {
          "internalType": "int256",
          "name": "",
          "type": "int256"
        }
      ],
      "payable": false,
      "stateMutability": "pure",
      "type": "function"
    },
    {
      "constant": true,
      "inputs": [
        {
          "internalType": "int256",
          "name": "v",
          "type": "int256"
        },
        {
          "internalType": "uint8",
          "name": "digits",
          "type": "uint8"
        }
      ],
      "name": "trunc_digits",
      "outputs": [
        {
          "internalType": "int256",
          "name": "",
          "type": "int256"
        }
      ],
      "payable": false,
      "stateMutability": "pure",
      "type": "function"
    }
  ],
  "bytecode": "0x610e2e610026600b82828239805160001a60731461001957fe5b30600052607381538281f3fe73000000000000000000000000000000000000000030146080604052600436106100875760003560e01c806373f60c871161006557806373f60c871461014257806382780fed14610191578063de1c1b4c146101e0578063e49ce43c1461022f57610087565b8063019a916d1461008c5780631b095145146100d857806369f7f5e114610124575b600080fd5b6100c2600480360360408110156100a257600080fd5b81019080803590602001909291908035906020019092919050505061024d565b6040518082815260200191505060405180910390f35b61010e600480360360408110156100ee57600080fd5b81019080803590602001909291908035906020019092919050505061037a565b6040518082815260200191505060405180910390f35b61012c610417565b6040518082815260200191505060405180910390f35b61017b6004803603604081101561015857600080fd5b8101908080359060200190929190803560ff16906020019092919050505061042a565b6040518082815260200191505060405180910390f35b6101ca600480360360408110156101a757600080fd5b8101908080359060200190929190803560ff1690602001909291905050506104b0565b6040518082815260200191505060405180910390f35b610219600480360360408110156101f657600080fd5b8101908080359060200190929190803560ff16906020019092919050505061055e565b6040518082815260200191505060405180910390f35b61023761070e565b6040518082815260200191505060405180910390f35b600061037273__fixedLib______________________________633c4308a873__LogarithmLib__________________________638e6f2353876040518263ffffffff1660e01b81526004018082815260200191505060206040518083038186803b1580156102bb57600080fd5b505af41580156102cf573d6000803e3d6000fd5b505050506040513d60208110156102e557600080fd5b8101908080519060200190929190505050856040518363ffffffff1660e01b8152600401808381526020018281526020019250505060206040518083038186803b15801561033257600080fd5b505af4158015610346573d6000803e3d6000fd5b505050506040513d602081101561035c57600080fd5b8101908080519060200190929190505050610722565b905092915050565b600061040f8373__fixedLib______________________________639c15bca4856040518263ffffffff1660e01b81526004018082815260200191505060206040518083038186803b1580156103cf57600080fd5b505af41580156103e3573d6000803e3d6000fd5b505050506040513d60208110156103f957600080fd5b810190808051906020019092919050505061024d565b905092915050565b60006a023f9e5a6acd2121ba821f905090565b6000808260ff16600a0a905060006001905060008590506000811215610474577fffffffffffffffffffffffffffffffffffffffffffffffffffffffffffffffff91508060000390505b6002838161047e57fe5b0583828161048857fe5b071261049f5782818161049757fe5b078382010390505b8160000b8102935050505092915050565b6000808260ff16116104c457829050610558565b73__fixedLib______________________________632179bb6c6040518163ffffffff1660e01b815260040160206040518083038186803b15801561050857600080fd5b505af415801561051c573d6000803e3d6000fd5b505050506040513d602081101561053257600080fd5b810190808051906020019092919050505061054d848461042a565b8161055457fe5b0590505b92915050565b600061070673__fixedLib______________________________63f598423673__LogarithmLib__________________________638e6f2353876040518263ffffffff1660e01b81526004018082815260200191505060206040518083038186803b1580156105cc57600080fd5b505af41580156105e0573d6000803e3d6000fd5b505050506040513d60208110156105f657600080fd5b81019080805190602001909291905050508560ff1673__fixedLib______________________________632179bb6c6040518163ffffffff1660e01b815260040160206040518083038186803b15801561064f57600080fd5b505af4158015610663573d6000803e3d6000fd5b505050506040513d602081101561067957600080fd5b8101908080519060200190929190505050026040518363ffffffff1660e01b8152600401808381526020018281526020019250505060206040518083038186803b1580156106c657600080fd5b505af41580156106da573d6000803e3d6000fd5b505050506040513d60208110156106f057600080fd5b8101908080519060200190929190505050610722565b905092915050565b60006b472bdd8f58692b62ba7f4f65905090565b600073__fixedLib______________________________632179bb6c6040518163ffffffff1660e01b815260040160206040518083038186803b15801561076857600080fd5b505af415801561077c573d6000803e3d6000fd5b505050506040513d602081101561079257600080fd5b810190808051906020019092919050505060ac0282126107ae57fe5b6000829050600073__fixedLib______________________________632179bb6c6040518163ffffffff1660e01b815260040160206040518083038186803b1580156107f957600080fd5b505af415801561080d573d6000803e3d6000fd5b505050506040513d602081101561082357600080fd5b810190808051906020019092919050505090505b73__fixedLib______________________________632179bb6c6040518163ffffffff1660e01b815260040160206040518083038186803b15801561087b57600080fd5b505af415801561088f573d6000803e3d6000fd5b505050506040513d60208110156108a557600080fd5b8101908080519060200190929190505050600a0282126109e55773__fixedLib______________________________632179bb6c6040518163ffffffff1660e01b815260040160206040518083038186803b15801561090357600080fd5b505af4158015610917573d6000803e3d6000fd5b505050506040513d602081101561092d57600080fd5b8101908080519060200190929190505050600a028203915073__fixedLib______________________________633c4308a88261096861070e565b6040518363ffffffff1660e01b8152600401808381526020018281526020019250505060206040518083038186803b1580156109a357600080fd5b505af41580156109b7573d6000803e3d6000fd5b505050506040513d60208110156109cd57600080fd5b81019080805190602001909291905050509050610837565b73__fixedLib______________________________632179bb6c6040518163ffffffff1660e01b815260040160206040518083038186803b158015610a2957600080fd5b505af4158015610a3d573d6000803e3d6000fd5b505050506040513d6020811015610a5357600080fd5b8101908080519060200190929190505050821415610b845773__fixedLib______________________________633c4308a88273__LogarithmLib__________________________6369f7f5e16040518163ffffffff1660e01b815260040160206040518083038186803b158015610aca57600080fd5b505af4158015610ade573d6000803e3d6000fd5b505050506040513d6020811015610af457600080fd5b81019080805190602001909291905050506040518363ffffffff1660e01b8152600401808381526020018281526020019250505060206040518083038186803b158015610b4057600080fd5b505af4158015610b54573d6000803e3d6000fd5b505050506040513d6020811015610b6a57600080fd5b810190808051906020019092919050505092505050610df4565b6000821415610b97578092505050610df4565b600073__fixedLib______________________________632179bb6c6040518163ffffffff1660e01b815260040160206040518083038186803b158015610bdd57600080fd5b505af4158015610bf1573d6000803e3d6000fd5b505050506040513d6020811015610c0757600080fd5b8101908080519060200190929190505050606402905060008190506000600190505b73__fixedLib______________________________639e20437c6040518163ffffffff1660e01b815260040160206040518083038186803b158015610c6d57600080fd5b505af4158015610c81573d6000803e3d6000fd5b505050506040513d6020811015610c9757600080fd5b810190808051906020019092919050505060020260ff168160ff1611610d5a578060ff1673__fixedLib______________________________632179bb6c6040518163ffffffff1660e01b815260040160206040518083038186803b158015610cff57600080fd5b505af4158015610d13573d6000803e3d6000fd5b505050506040513d6020811015610d2957600080fd5b81019080805190602001909291905050500285830281610d4557fe5b05915081830192508080600101915050610c29565b5073__fixedLib______________________________633c4308a883856040518363ffffffff1660e01b8152600401808381526020018281526020019250505060206040518083038186803b158015610db257600080fd5b505af4158015610dc6573d6000803e3d6000fd5b505050506040513d6020811015610ddc57600080fd5b81019080805190602001909291905050509450505050505b91905056fea265627a7a723158203f60749309ceef596f8714a5ce779cfd5894670a9d4de5f11d5400e2709ce08564736f6c63430005100032",
  "source": "pragma solidity >=0.4.22 <0.7.0;\n\nimport \"./fixedLib.sol\";\nimport \"./LogarithmLib.sol\";\n\n\nlibrary ExponentLib {\n\n    function fixedExp10() public pure returns(int256) {\n        return 22026465794806716516957900645;\n    }\n\n    function fixedE() public pure returns(int256) {\n        return 2718281828459045235360287;\n    }\n    /**\n     * @notice Not fully tested anymore.\n     */\n    function powerE(int256 _x)\n        internal\n        pure\n        returns (int256)\n    {\n        assert(_x < 172 * fixedLib.fixed1());\n        int256 x = _x;\n        int256 r = fixedLib.fixed1();\n        while (x >= 10 * fixedLib.fixed1()) {\n            x -= 10 * fixedLib.fixed1();\n            r = fixedLib.multiply(r, fixedExp10());\n        }\n        if (x == fixedLib.fixed1()) {\n            return fixedLib.multiply(r, LogarithmLib.fixedE());\n        } else if (x == 0) {\n            return r;\n        }\n        int256 tr = 100 * fixedLib.fixed1();\n        int256 d = tr;\n        for (uint8 i = 1; i <= 2 * fixedLib.digits(); i++) {\n            d = (d * x) / (fixedLib.fixed1() * i);\n            tr += d;\n        }\n        return fixedLib.multiply(tr, r);\n        //return trunc_digits(fixedLib.multiply(tr, r), 2);\n    }\n\n    function powerAny(int256 a, int256 b)\n        public\n        pure\n        returns (int256)\n    {\n        return powerE(fixedLib.multiply(LogarithmLib.ln(a), b));\n    }\n\n    function rootAny(int256 a, int256 b)\n        public\n        pure\n        returns (int256)\n    {\n        return powerAny(a, fixedLib.reciprocal(b));\n    }\n\n    function rootN(int256 a, uint8 n)\n        public\n        pure\n        returns (int256)\n    {\n        return powerE(fixedLib.divide(LogarithmLib.ln(a), fixedLib.fixed1() * n));\n    }\n\n    // solium-disable-next-line mixedcase\n    function round_off(int256 _v, uint8 digits)\n        public\n        pure\n        returns (int256)\n    {\n        int256 t = int256(uint256(10) ** uint256(digits));\n        int8 sign = 1;\n        int256 v = _v;\n        if (v < 0) {\n            sign = -1;\n            v = 0 - v;\n        }\n        if (v % t >= t / 2) v = v + t - v % t;\n        return v * sign;\n    }\n\n    // solium-disable-next-line mixedcase\n    function trunc_digits(int256 v, uint8 digits)\n        public\n        pure\n        returns (int256)\n    {\n        if (digits <= 0) return v;\n        return round_off(v, digits) / fixedLib.fixed1();\n    }\n}",
  "sourcePath": "/root/blockchain/FixedLib/contracts/ExponentLib.sol",
  "compiler": {
    "name": "solc",
    "version": "0.5.16+commit.9c3226ce.Emscripten.clang"
  },
  "schemaVersion": "3.1.0",
  "updatedAt": "2020-05-20T00:16:24.493Z",
  "devdoc": {
    "methods": {}
  },
  "userdoc": {
    "methods": {}
  }
}