{
  "contractName": "fixedLib",
  "abi": [
    {
      "constant": true,
      "inputs": [],
      "name": "digits",
      "outputs": [
        {
          "internalType": "uint8",
          "name": "",
          "type": "uint8"
        }
      ],
      "payable": false,
      "stateMutability": "pure",
      "type": "function"
    },
    {
      "constant": true,
      "inputs": [],
      "name": "fixed1",
      "outputs": [
        {
          "internalType": "int256",
          "name": "",
          "type": "int256"
        }
      ],
      "payable": false,
      "stateMutability": "pure",
      "type": "function"
    },
    {
      "constant": true,
      "inputs": [],
      "name": "mulPrecision",
      "outputs": [
        {
          "internalType": "int256",
          "name": "",
          "type": "int256"
        }
      ],
      "payable": false,
      "stateMutability": "pure",
      "type": "function"
    },
    {
      "constant": true,
      "inputs": [],
      "name": "maxInt256",
      "outputs": [
        {
          "internalType": "int256",
          "name": "",
          "type": "int256"
        }
      ],
      "payable": false,
      "stateMutability": "pure",
      "type": "function"
    },
    {
      "constant": true,
      "inputs": [],
      "name": "minInt256",
      "outputs": [
        {
          "internalType": "int256",
          "name": "",
          "type": "int256"
        }
      ],
      "payable": false,
      "stateMutability": "pure",
      "type": "function"
    },
    {
      "constant": true,
      "inputs": [],
      "name": "maxNewFixed",
      "outputs": [
        {
          "internalType": "int256",
          "name": "",
          "type": "int256"
        }
      ],
      "payable": false,
      "stateMutability": "pure",
      "type": "function"
    },
    {
      "constant": true,
      "inputs": [],
      "name": "minNewFixed",
      "outputs": [
        {
          "internalType": "int256",
          "name": "",
          "type": "int256"
        }
      ],
      "payable": false,
      "stateMutability": "pure",
      "type": "function"
    },
    {
      "constant": true,
      "inputs": [],
      "name": "maxFixedAdd",
      "outputs": [
        {
          "internalType": "int256",
          "name": "",
          "type": "int256"
        }
      ],
      "payable": false,
      "stateMutability": "pure",
      "type": "function"
    },
    {
      "constant": true,
      "inputs": [],
      "name": "maxFixedSub",
      "outputs": [
        {
          "internalType": "int256",
          "name": "",
          "type": "int256"
        }
      ],
      "payable": false,
      "stateMutability": "pure",
      "type": "function"
    },
    {
      "constant": true,
      "inputs": [],
      "name": "maxFixedMul",
      "outputs": [
        {
          "internalType": "int256",
          "name": "",
          "type": "int256"
        }
      ],
      "payable": false,
      "stateMutability": "pure",
      "type": "function"
    },
    {
      "constant": true,
      "inputs": [],
      "name": "maxFixedDiv",
      "outputs": [
        {
          "internalType": "int256",
          "name": "",
          "type": "int256"
        }
      ],
      "payable": false,
      "stateMutability": "pure",
      "type": "function"
    },
    {
      "constant": true,
      "inputs": [],
      "name": "maxFixedDivisor",
      "outputs": [
        {
          "internalType": "int256",
          "name": "",
          "type": "int256"
        }
      ],
      "payable": false,
      "stateMutability": "pure",
      "type": "function"
    },
    {
      "constant": true,
      "inputs": [
        {
          "internalType": "int256",
          "name": "x",
          "type": "int256"
        },
        {
          "internalType": "uint8",
          "name": "_originDigits",
          "type": "uint8"
        },
        {
          "internalType": "uint8",
          "name": "_destinationDigits",
          "type": "uint8"
        }
      ],
      "name": "convertFixed",
      "outputs": [
        {
          "internalType": "int256",
          "name": "",
          "type": "int256"
        }
      ],
      "payable": false,
      "stateMutability": "pure",
      "type": "function"
    },
    {
      "constant": true,
      "inputs": [
        {
          "internalType": "int256",
          "name": "x",
          "type": "int256"
        }
      ],
      "name": "newFixed",
      "outputs": [
        {
          "internalType": "int256",
          "name": "",
          "type": "int256"
        }
      ],
      "payable": false,
      "stateMutability": "pure",
      "type": "function"
    },
    {
      "constant": true,
      "inputs": [
        {
          "internalType": "int256",
          "name": "x",
          "type": "int256"
        },
        {
          "internalType": "uint8",
          "name": "_originDigits",
          "type": "uint8"
        }
      ],
      "name": "newFixed",
      "outputs": [
        {
          "internalType": "int256",
          "name": "",
          "type": "int256"
        }
      ],
      "payable": false,
      "stateMutability": "pure",
      "type": "function"
    },
    {
      "constant": true,
      "inputs": [
        {
          "internalType": "int256",
          "name": "x",
          "type": "int256"
        }
      ],
      "name": "fromFixed",
      "outputs": [
        {
          "internalType": "int256",
          "name": "",
          "type": "int256"
        }
      ],
      "payable": false,
      "stateMutability": "pure",
      "type": "function"
    },
    {
      "constant": true,
      "inputs": [
        {
          "internalType": "int256",
          "name": "x",
          "type": "int256"
        },
        {
          "internalType": "uint8",
          "name": "_destinationDigits",
          "type": "uint8"
        }
      ],
      "name": "fromFixed",
      "outputs": [
        {
          "internalType": "int256",
          "name": "",
          "type": "int256"
        }
      ],
      "payable": false,
      "stateMutability": "pure",
      "type": "function"
    },
    {
      "constant": true,
      "inputs": [
        {
          "internalType": "int256",
          "name": "numerator",
          "type": "int256"
        },
        {
          "internalType": "int256",
          "name": "denominator",
          "type": "int256"
        }
      ],
      "name": "newFixedFraction",
      "outputs": [
        {
          "internalType": "int256",
          "name": "",
          "type": "int256"
        }
      ],
      "payable": false,
      "stateMutability": "pure",
      "type": "function"
    },
    {
      "constant": true,
      "inputs": [
        {
          "internalType": "int256",
          "name": "x",
          "type": "int256"
        }
      ],
      "name": "integer",
      "outputs": [
        {
          "internalType": "int256",
          "name": "",
          "type": "int256"
        }
      ],
      "payable": false,
      "stateMutability": "pure",
      "type": "function"
    },
    {
      "constant": true,
      "inputs": [
        {
          "internalType": "int256",
          "name": "x",
          "type": "int256"
        }
      ],
      "name": "fractional",
      "outputs": [
        {
          "internalType": "int256",
          "name": "",
          "type": "int256"
        }
      ],
      "payable": false,
      "stateMutability": "pure",
      "type": "function"
    },
    {
      "constant": true,
      "inputs": [
        {
          "internalType": "int256",
          "name": "x",
          "type": "int256"
        }
      ],
      "name": "abs",
      "outputs": [
        {
          "internalType": "int256",
          "name": "",
          "type": "int256"
        }
      ],
      "payable": false,
      "stateMutability": "pure",
      "type": "function"
    },
    {
      "constant": true,
      "inputs": [
        {
          "internalType": "int256",
          "name": "x",
          "type": "int256"
        },
        {
          "internalType": "int256",
          "name": "y",
          "type": "int256"
        }
      ],
      "name": "add",
      "outputs": [
        {
          "internalType": "int256",
          "name": "",
          "type": "int256"
        }
      ],
      "payable": false,
      "stateMutability": "pure",
      "type": "function"
    },
    {
      "constant": true,
      "inputs": [
        {
          "internalType": "int256",
          "name": "x",
          "type": "int256"
        },
        {
          "internalType": "int256",
          "name": "y",
          "type": "int256"
        }
      ],
      "name": "subtract",
      "outputs": [
        {
          "internalType": "int256",
          "name": "",
          "type": "int256"
        }
      ],
      "payable": false,
      "stateMutability": "pure",
      "type": "function"
    },
    {
      "constant": true,
      "inputs": [
        {
          "internalType": "int256",
          "name": "x",
          "type": "int256"
        },
        {
          "internalType": "int256",
          "name": "y",
          "type": "int256"
        }
      ],
      "name": "multiply",
      "outputs": [
        {
          "internalType": "int256",
          "name": "",
          "type": "int256"
        }
      ],
      "payable": false,
      "stateMutability": "pure",
      "type": "function"
    },
    {
      "constant": true,
      "inputs": [
        {
          "internalType": "int256",
          "name": "x",
          "type": "int256"
        }
      ],
      "name": "reciprocal",
      "outputs": [
        {
          "internalType": "int256",
          "name": "",
          "type": "int256"
        }
      ],
      "payable": false,
      "stateMutability": "pure",
      "type": "function"
    },
    {
      "constant": true,
      "inputs": [
        {
          "internalType": "int256",
          "name": "x",
          "type": "int256"
        },
        {
          "internalType": "int256",
          "name": "y",
          "type": "int256"
        }
      ],
      "name": "divide",
      "outputs": [
        {
          "internalType": "int256",
          "name": "",
          "type": "int256"
        }
      ],
      "payable": false,
      "stateMutability": "pure",
      "type": "function"
    },
    {
      "constant": true,
      "inputs": [
        {
          "internalType": "uint256",
          "name": "_x",
          "type": "uint256"
        }
      ],
      "name": "factorial",
      "outputs": [
        {
          "internalType": "int256",
          "name": "",
          "type": "int256"
        }
      ],
      "payable": false,
      "stateMutability": "pure",
      "type": "function"
    }
  ],
  "bytecode": "0x610f75610026600b82828239805160001a60731461001957fe5b30600052607381538281f3fe73000000000000000000000000000000000000000030146080604052600436106101b35760003560e01c806393b027b411610103578063b93ea812116100a1578063d6c1528b1161007b578063d6c1528b1461066f578063e179f252146106be578063f598423614610700578063f800d6721461074c576101b3565b8063b93ea8121461059f578063bd5cbd62146105eb578063cf94513a1461062d576101b3565b80639ca7eb76116100dd5780639ca7eb76146104f35780639e20437c14610511578063a0601be714610535578063a5f3c23b14610553576101b3565b806393b027b41461044757806395ac72cf146104655780639c15bca4146104b1576101b3565b80633c4308a8116101705780637bc140ea1161014a5780637bc140ea146103ab5780637c1bd7c8146103c957806383714834146103e7578063925d6dfd14610429576101b3565b80633c4308a8146102e55780634daaea5314610331578063718db30a1461038d576101b3565b80630e998993146101b85780631b5ac4b5146101fa5780632179bb6c1461023c578063239909ea1461025a5780632fd81f4614610278578063393ca44614610296575b600080fd5b6101e4600480360360208110156101ce57600080fd5b810190808035906020019092919050505061076a565b6040518082815260200191505060405180910390f35b6102266004803603602081101561021057600080fd5b8101908080359060200190929190505050610784565b6040518082815260200191505060405180910390f35b6102446107b1565b6040518082815260200191505060405180910390f35b6102626107c3565b6040518082815260200191505060405180910390f35b6102806107df565b6040518082815260200191505060405180910390f35b6102cf600480360360408110156102ac57600080fd5b8101908080359060200190929190803560ff1690602001909291905050506107fc565b6040518082815260200191505060405180910390f35b61031b600480360360408110156102fb57600080fd5b810190808035906020019092919080359060200190929190505050610818565b6040518082815260200191505060405180910390f35b6103776004803603606081101561034757600080fd5b8101908080359060200190929190803560ff169060200190929190803560ff1690602001909291905050506109d6565b6040518082815260200191505060405180910390f35b610395610b6b565b6040518082815260200191505060405180910390f35b6103b3610b93565b6040518082815260200191505060405180910390f35b6103d1610bb1565b6040518082815260200191505060405180910390f35b610413600480360360208110156103fd57600080fd5b8101908080359060200190929190505050610bd9565b6040518082815260200191505060405180910390f35b610431610ca4565b6040518082815260200191505060405180910390f35b61044f610ccc565b6040518082815260200191505060405180910390f35b61049b6004803603604081101561047b57600080fd5b810190808035906020019092919080359060200190929190505050610cf4565b6040518082815260200191505060405180910390f35b6104dd600480360360208110156104c757600080fd5b8101908080359060200190929190505050610d51565b6040518082815260200191505060405180910390f35b6104fb610d7e565b6040518082815260200191505060405180910390f35b610519610d8b565b604051808260ff1660ff16815260200191505060405180910390f35b61053d610d94565b6040518082815260200191505060405180910390f35b6105896004803603604081101561056957600080fd5b810190808035906020019092919080359060200190929190505050610dbc565b6040518082815260200191505060405180910390f35b6105d5600480360360408110156105b557600080fd5b810190808035906020019092919080359060200190929190505050610e22565b6040518082815260200191505060405180910390f35b6106176004803603602081101561060157600080fd5b8101908080359060200190929190505050610e39565b6040518082815260200191505060405180910390f35b6106596004803603602081101561064357600080fd5b8101908080359060200190929190505050610e6e565b6040518082815260200191505060405180910390f35b6106a86004803603604081101561068557600080fd5b8101908080359060200190929190803560ff169060200190929190505050610e93565b6040518082815260200191505060405180910390f35b6106ea600480360360208110156106d457600080fd5b8101908080359060200190929190505050610eaf565b6040518082815260200191505060405180910390f35b6107366004803603604081101561071657600080fd5b810190808035906020019092919080359060200190929190505050610ed2565b6040518082815260200191505060405180910390f35b610754610f22565b6040518082815260200191505060405180910390f35b60006107746107b1565b828161077c57fe5b059050919050565b6000808212610795578190506107ac565b6000826000039050600081136107a757fe5b809150505b919050565b600069d3c21bcecceda1000000905090565b600073af298d050e4395d69670b12b7f41000000000000905090565b600074a4a2d938028c280000000000000000000000000000905090565b60006108108361080a610d8b565b846109d6565b905092915050565b6000808314806108285750600082145b1561083657600090506109d0565b61083e6107b1565b82141561084d578290506109d0565b6108556107b1565b831415610864578190506109d0565b600061086e6107b1565b61087785610eaf565b8161087e57fe5b059050600061088c85610e6e565b905060006108986107b1565b6108a186610eaf565b816108a857fe5b05905060006108b686610e6e565b905060008285029050600085146108da57828582816108d157fe5b05146108d957fe5b5b60006108e46107b1565b820290506000821461090a576108f86107b1565b82828161090157fe5b051461090957fe5b5b809150600084860290506000861461092f578486828161092657fe5b051461092e57fe5b5b6000848802905060008814610951578488828161094857fe5b051461095057fe5b5b610959610d7e565b878161096157fe5b05965061096c610d7e565b858161097457fe5b0594506000858802905060008814610999578588828161099057fe5b051461099857fe5b5b60008590506109a88185610dbc565b90506109b48184610dbc565b90506109c08183610dbc565b9050809a50505050505050505050505b92915050565b600060268360ff16111580156109f0575060268260ff1611155b6109f657fe5b60008260ff168460ff161115610a595782840390508060ff166fffffffffffffffffffffffffffffffff16600a6fffffffffffffffffffffffffffffffff160a6fffffffffffffffffffffffffffffffff168581610a5057fe5b05915050610b64565b8260ff168460ff161015610b5f5783830390508060ff166fffffffffffffffffffffffffffffffff16600a6fffffffffffffffffffffffffffffffff160a6fffffffffffffffffffffffffffffffff16610ab1610ccc565b81610ab857fe5b05851315610ac257fe5b8060ff166fffffffffffffffffffffffffffffffff16600a6fffffffffffffffffffffffffffffffff160a6fffffffffffffffffffffffffffffffff16610b07610bb1565b81610b0e57fe5b05851215610b1857fe5b8060ff166fffffffffffffffffffffffffffffffff16600a6fffffffffffffffffffffffffffffffff160a6fffffffffffffffffffffffffffffffff168502915050610b64565b849150505b9392505050565b60007fffffffffffffffffffff6541eb32bb8ac4ad3b6d95698d86cabd2873c9ea30c6905090565b6000759abe14cd44753b52c4926a9672793542d78c3615cf3a905090565b60007f8000000000000000000000000000000000000000000000000000000000000000905090565b60006a2f2638310ba0e8d9000000821115610c5c576040517f08c379a00000000000000000000000000000000000000000000000000000000081526004018080602001828103825260108152602001807f4f757473696465206f662072616e67650000000000000000000000000000000081525060200191505060405180910390fd5b60008290506000610c6b6107b1565b90505b610c766107b1565b821315610c9a57610c878183610818565b9050610c916107b1565b82039150610c6e565b8092505050919050565b60007f3fffffffffffffffffffffffffffffffffffffffffffffffffffffffffffffff905090565b60007f7fffffffffffffffffffffffffffffffffffffffffffffffffffffffffffffff905090565b6000610cfe610f22565b831315610d0757fe5b610d0f610f22565b821315610d1857fe5b6000821415610d2357fe5b6000610d2e84610e39565b90506000610d3b84610e39565b9050610d478282610ed2565b9250505092915050565b600080821415610d5d57fe5b81610d666107b1565b610d6e6107b1565b0281610d7657fe5b059050919050565b600064e8d4a51000905090565b60006018905090565b60007fc000000000000000000000000000000000000000000000000000000000000000905090565b6000808284019050600084138015610dd45750600083135b15610dee578381138015610de757508281135b610ded57fe5b5b600084128015610dfe5750600083125b15610e18578381128015610e1157508281125b610e1757fe5b5b8091505092915050565b6000610e318383600003610dbc565b905092915050565b6000610e43610f22565b821315610e4c57fe5b610e54610b6b565b821215610e5d57fe5b610e656107b1565b82029050919050565b6000610e786107b1565b610e806107b1565b8381610e8857fe5b050282039050919050565b6000610ea78383610ea2610d8b565b6109d6565b905092915050565b6000610eb96107b1565b610ec16107b1565b8381610ec957fe5b05029050919050565b6000610edc6107b1565b821415610eeb57829050610f1c565b6000821415610ef657fe5b610efe6107c3565b821315610f0757fe5b610f1983610f1484610d51565b610818565b90505b92915050565b6000759abe14cd44753b52c4926a9672793542d78c3615cf3a90509056fea265627a7a723158202ecbcf11789772222995d81b562eb4be466b3b99bcc1a8ef480fa7c21dae5fe264736f6c63430005100032",
  "source": "pragma solidity >=0.4.22 <0.7.0;\n\nlibrary fixedLib {\n\n    /**\n     * @notice Number of positions that the comma is shifted to the right.\n     */\n    function digits() public pure returns(uint8) {\n        return 24;\n    }\n    \n    /**\n     * @notice This is 1 in the fixed point units used in this library.\n     * @dev Test fixed1() equals 10^digits()\n     * Hardcoded to 24 digits.\n     */\n    function fixed1() public pure returns(int256) {\n        return 1000000000000000000000000;\n    }\n\n    /**\n     * @notice The amount of decimals lost on each multiplication operand.\n     * @dev Test mulPrecision() equals sqrt(fixed1)\n     * Hardcoded to 24 digits.\n     */\n    function mulPrecision() public pure returns(int256) {\n        return 1000000000000;\n    }\n\n    /**\n     * @notice Maximum value that can be represented in an int256\n     * @dev Test maxInt256() equals 2^255 -1\n     */\n    function maxInt256() public pure returns(int256) {\n        return 57896044618658097711785492504343953926634992332820282019728792003956564819967;\n    }\n\n    /**\n     * @notice Minimum value that can be represented in an int256\n     * @dev Test minInt256 equals (2^255) * (-1)\n     */\n    function minInt256() public pure returns(int256) {\n        return -57896044618658097711785492504343953926634992332820282019728792003956564819968;\n    }\n\n    /**\n     * @notice Maximum value that can be converted to fixed point. Optimize for\n     * @dev deployment.\n     * Test maxNewFixed() equals maxInt256() / fixed1()\n     * Hardcoded to 24 digits.\n     */\n    function maxNewFixed() public pure returns(int256) {\n        return 57896044618658097711785492504343953926634992332820282;\n    }\n\n    /**\n     * @notice Maximum value that can be converted to fixed point. Optimize for\n     * deployment.\n     * @dev Test minNewFixed() equals -(maxInt256()) / fixed1()\n     * Hardcoded to 24 digits.\n     */\n    function minNewFixed() public pure returns(int256) {\n        return -57896044618658097711785492504343953926634992332820282;\n    }\n\n    /**\n     * @notice Maximum value that can be safely used as an addition operator.\n     * @dev Test maxFixedAdd() equals maxInt256()-1 / 2\n     * Test add(maxFixedAdd(),maxFixedAdd()) equals maxFixedAdd() + maxFixedAdd()\n     * Test add(maxFixedAdd()+1,maxFixedAdd()) throws\n     * Test add(-maxFixedAdd(),-maxFixedAdd()) equals -maxFixedAdd() - maxFixedAdd()\n     * Test add(-maxFixedAdd(),-maxFixedAdd()-1) throws\n     */\n    function maxFixedAdd() public pure returns(int256) {\n        return 28948022309329048855892746252171976963317496166410141009864396001978282409983;\n    }\n\n    /**\n     * @notice Maximum negative value that can be safely in a subtraction.\n     * @dev Test maxFixedSub() equals minInt256() / 2\n     */\n    function maxFixedSub() public pure returns(int256) {\n        return -28948022309329048855892746252171976963317496166410141009864396001978282409984;\n    }\n\n    /**\n     * @notice Maximum value that can be safely used as a multiplication operator.\n     * @dev Calculated as sqrt(maxInt256()*fixed1()).\n     * Be careful with your sqrt() implementation. I couldn't find a calculator\n     * that would give the exact square root of maxInt256*fixed1 so this number\n     * is below the real number by no more than 3*10**28. It is safe to use as\n     * a limit for your multiplications, although powers of two of numbers over\n     * this value might still work.\n     * Test multiply(maxFixedMul(),maxFixedMul()) equals maxFixedMul() * maxFixedMul()\n     * Test multiply(maxFixedMul(),maxFixedMul()+1) throws\n     * Test multiply(-maxFixedMul(),maxFixedMul()) equals -maxFixedMul() * maxFixedMul()\n     * Test multiply(-maxFixedMul(),maxFixedMul()+1) throws\n     * Hardcoded to 24 digits.\n     */\n    function maxFixedMul() public pure returns(int256) {\n        return 240615969168004498257251713877715648331380787511296;\n    }\n\n    /**\n     * @notice Maximum value that can be safely used as a dividend.\n     * @dev divide(maxFixedDiv,newFixedFraction(1,fixed1())) = maxInt256().\n     * Test maxFixedDiv() equals maxInt256()/fixed1()\n     * Test divide(maxFixedDiv(),multiply(mulPrecision(),mulPrecision())) = maxFixedDiv()*(10^digits())\n     * Test divide(maxFixedDiv()+1,multiply(mulPrecision(),mulPrecision())) throws\n     * Hardcoded to 24 digits.\n     */\n    function maxFixedDiv() public pure returns(int256) {\n        return 57896044618658097711785492504343953926634992332820282;\n    }\n\n    /**\n     * @notice Maximum value that can be safely used as a divisor.\n     * @dev Test maxFixedDivisor() equals fixed1()*fixed1() - Or 10**(digits()*2)\n     * Test divide(10**(digits()*2 + 1),10**(digits()*2)) = returns 10*fixed1()\n     * Test divide(10**(digits()*2 + 1),10**(digits()*2 + 1)) = throws\n     * Hardcoded to 24 digits.\n     */\n    function maxFixedDivisor() public pure returns(int256) {\n        return 1000000000000000000000000000000000000000000000000;\n    }\n\n    /**\n     * @notice Converts an int256 to fixed point units, equivalent to multiplying\n     * by 10^digits().\n     * @dev Test newFixed(0) returns 0\n     * Test newFixed(1) returns fixed1()\n     * Test newFixed(maxNewFixed()) returns maxNewFixed() * fixed1()\n     * Test newFixed(maxNewFixed()+1) fails\n     */\n    function newFixed(int256 x)\n        public\n        pure\n        returns (int256)\n    {\n        assert(x <= maxNewFixed());\n        assert(x >= minNewFixed());\n        return x * fixed1();\n    }\n\n    /**\n     * @notice Converts an int256 in the fixed point representation of this\n     * library to a non decimal. All decimal digits will be truncated.\n     */\n    function fromFixed(int256 x)\n        public\n        pure\n        returns (int256)\n    {\n        return x / fixed1();\n    }\n\n    /**\n     * @notice Converts an int256 which is already in some fixed point\n     * representation to a different fixed precision representation.\n     * Both the origin and destination precisions must be 38 or less digits.\n     * Origin values with a precision higher than the destination precision\n     * will be truncated accordingly.\n     * @dev\n     * Test convertFixed(1,0,0) returns 1;\n     * Test convertFixed(1,1,1) returns 1;\n     * Test convertFixed(1,1,0) returns 0;\n     * Test convertFixed(1,0,1) returns 10;\n     * Test convertFixed(10,1,0) returns 1;\n     * Test convertFixed(10,0,1) returns 100;\n     * Test convertFixed(100,1,0) returns 10;\n     * Test convertFixed(100,0,1) returns 1000;\n     * Test convertFixed(1000,2,0) returns 10;\n     * Test convertFixed(1000,0,2) returns 100000;\n     * Test convertFixed(1000,2,1) returns 100;\n     * Test convertFixed(1000,1,2) returns 10000;\n     * Test convertFixed(maxInt256,1,0) returns maxInt256/10;\n     * Test convertFixed(maxInt256,0,1) throws\n     * Test convertFixed(maxInt256,38,0) returns maxInt256/(10**38);\n     * Test convertFixed(1,0,38) returns 10**38;\n     * Test convertFixed(maxInt256,39,0) throws\n     * Test convertFixed(1,0,39) throws\n     */\n    function convertFixed(int256 x, uint8 _originDigits, uint8 _destinationDigits)\n        public\n        pure\n        returns (int256)\n    {\n        assert(_originDigits <= 38 && _destinationDigits <= 38);\n\n        uint8 decimalDifference;\n        if ( _originDigits > _destinationDigits ){\n            decimalDifference = _originDigits - _destinationDigits;\n            return x/(uint128(10)**uint128(decimalDifference));\n        }\n        else if ( _originDigits < _destinationDigits ){\n            decimalDifference = _destinationDigits - _originDigits;\n            // Cast uint8 -> uint128 is safe\n            // Exponentiation is safe:\n            //     _originDigits and _destinationDigits limited to 38 or less\n            //     decimalDifference = abs(_destinationDigits - _originDigits)\n            //     decimalDifference < 38\n            //     10**38 < 2**128-1\n            assert(x <= maxInt256()/uint128(10)**uint128(decimalDifference));\n            assert(x >= minInt256()/uint128(10)**uint128(decimalDifference));\n            return x*(uint128(10)**uint128(decimalDifference));\n        }\n        // _originDigits == digits())\n        return x;\n    }\n\n    /**\n     * @notice Converts an int256 which is already in some fixed point\n     * representation to that of this library. The _originDigits parameter is the\n     * precision of x. Values with a precision higher than FixidityLib.digits()\n     * will be truncated accordingly.\n     */\n    function newFixed(int256 x, uint8 _originDigits)\n        public\n        pure\n        returns (int256)\n    {\n        return convertFixed(x, _originDigits, digits());\n    }\n\n    /**\n     * @notice Converts an int256 in the fixed point representation of this\n     * library to a different representation. The _destinationDigits parameter is the\n     * precision of the output x. Values with a precision below than\n     * FixidityLib.digits() will be truncated accordingly.\n     */\n    function fromFixed(int256 x, uint8 _destinationDigits)\n        public\n        pure\n        returns (int256)\n    {\n        return convertFixed(x, digits(), _destinationDigits);\n    }\n\n    /**\n     * @notice Converts two int256 representing a fraction to fixed point units,\n     * equivalent to multiplying dividend and divisor by 10^digits().\n     * @dev\n     * Test newFixedFraction(maxFixedDiv()+1,1) fails\n     * Test newFixedFraction(1,maxFixedDiv()+1) fails\n     * Test newFixedFraction(1,0) fails\n     * Test newFixedFraction(0,1) returns 0\n     * Test newFixedFraction(1,1) returns fixed1()\n     * Test newFixedFraction(maxFixedDiv(),1) returns maxFixedDiv()*fixed1()\n     * Test newFixedFraction(1,fixed1()) returns 1\n     * Test newFixedFraction(1,fixed1()-1) returns 0\n     */\n    function newFixedFraction(\n        int256 numerator,\n        int256 denominator\n        )\n        public\n        pure\n        returns (int256)\n    {\n        assert(numerator <= maxNewFixed());\n        assert(denominator <= maxNewFixed());\n        assert(denominator != 0);\n        int256 convertedNumerator = newFixed(numerator);\n        int256 convertedDenominator = newFixed(denominator);\n        return divide(convertedNumerator, convertedDenominator);\n    }\n\n    /**\n     * @notice Returns the integer part of a fixed point number.\n     * @dev\n     * Test integer(0) returns 0\n     * Test integer(fixed1()) returns fixed1()\n     * Test integer(newFixed(maxNewFixed())) returns maxNewFixed()*fixed1()\n     * Test integer(-fixed1()) returns -fixed1()\n     * Test integer(newFixed(-maxNewFixed())) returns -maxNewFixed()*fixed1()\n     */\n    function integer(int256 x) public pure returns (int256) {\n        return (x / fixed1()) * fixed1(); // Can't overflow\n    }\n\n    /**\n     * @notice Returns the fractional part of a fixed point number.\n     * In the case of a negative number the fractional is also negative.\n     * @dev\n     * Test fractional(0) returns 0\n     * Test fractional(fixed1()) returns 0\n     * Test fractional(fixed1()-1) returns 10^24-1\n     * Test fractional(-fixed1()) returns 0\n     * Test fractional(-fixed1()+1) returns -10^24-1\n     */\n    function fractional(int256 x) public pure returns (int256) {\n        return x - (x / fixed1()) * fixed1(); // Can't overflow\n    }\n\n    /**\n     * @notice Converts to positive if negative.\n     * Due to int256 having one more negative number than positive numbers\n     * abs(minInt256) reverts.\n     * @dev\n     * Test abs(0) returns 0\n     * Test abs(fixed1()) returns -fixed1()\n     * Test abs(-fixed1()) returns fixed1()\n     * Test abs(newFixed(maxNewFixed())) returns maxNewFixed()*fixed1()\n     * Test abs(newFixed(minNewFixed())) returns -minNewFixed()*fixed1()\n     */\n    function abs(int256 x) public pure returns (int256) {\n        if (x >= 0) {\n            return x;\n        } else {\n            int256 result = -x;\n            assert (result > 0);\n            return result;\n        }\n    }\n\n    /**\n     * @notice x+y. If any operator is higher than maxFixedAdd() it\n     * might overflow.\n     * In solidity maxInt256 + 1 = minInt256 and viceversa.\n     * @dev\n     * Test add(maxFixedAdd(),maxFixedAdd()) returns maxInt256()-1\n     * Test add(maxFixedAdd()+1,maxFixedAdd()+1) fails\n     * Test add(-maxFixedSub(),-maxFixedSub()) returns minInt256()\n     * Test add(-maxFixedSub()-1,-maxFixedSub()-1) fails\n     * Test add(maxInt256(),maxInt256()) fails\n     * Test add(minInt256(),minInt256()) fails\n     */\n    function add(int256 x, int256 y) public pure returns (int256) {\n        int256 z = x + y;\n        if (x > 0 && y > 0) assert(z > x && z > y);\n        if (x < 0 && y < 0) assert(z < x && z < y);\n        return z;\n    }\n\n    /**\n     * @notice x-y. You can use add(x,-y) instead.\n     * @dev Tests covered by add(x,y)\n     */\n    function subtract(int256 x, int256 y) public pure returns (int256) {\n        return add(x,-y);\n    }\n\n    /**\n     * @notice x*y. If any of the operators is higher than maxFixedMul() it\n     * might overflow.\n     * @dev\n     * Test multiply(0,0) returns 0\n     * Test multiply(maxFixedMul(),0) returns 0\n     * Test multiply(0,maxFixedMul()) returns 0\n     * Test multiply(maxFixedMul(),fixed1()) returns maxFixedMul()\n     * Test multiply(fixed1(),maxFixedMul()) returns maxFixedMul()\n     * Test all combinations of (2,-2), (2, 2.5), (2, -2.5) and (0.5, -0.5)\n     * Test multiply(fixed1()/mulPrecision(),fixed1()*mulPrecision())\n     * Test multiply(maxFixedMul()-1,maxFixedMul()) equals multiply(maxFixedMul(),maxFixedMul()-1)\n     * Test multiply(maxFixedMul(),maxFixedMul()) returns maxInt256() // Probably not to the last digits\n     * Test multiply(maxFixedMul()+1,maxFixedMul()) fails\n     * Test multiply(maxFixedMul(),maxFixedMul()+1) fails\n     */\n    function multiply(int256 x, int256 y) public pure returns (int256) {\n        if (x == 0 || y == 0) return 0;\n        if (y == fixed1()) return x;\n        if (x == fixed1()) return y;\n\n        // Separate into integer and fractional parts\n        // x = x1 + x2, y = y1 + y2\n        int256 x1 = integer(x) / fixed1();\n        int256 x2 = fractional(x);\n        int256 y1 = integer(y) / fixed1();\n        int256 y2 = fractional(y);\n\n        // (x1 + x2) * (y1 + y2) = (x1 * y1) + (x1 * y2) + (x2 * y1) + (x2 * y2)\n        int256 x1y1 = x1 * y1;\n        if (x1 != 0) assert(x1y1 / x1 == y1); // Overflow x1y1\n \n        // x1y1 needs to be multiplied back by fixed1\n        // solium-disable-next-line mixedcase\n        int256 fixed_x1y1 = x1y1 * fixed1();\n        if (x1y1 != 0) assert(fixed_x1y1 / x1y1 == fixed1()); // Overflow x1y1 * fixed1\n        x1y1 = fixed_x1y1;\n\n        int256 x2y1 = x2 * y1;\n        if (x2 != 0) assert(x2y1 / x2 == y1); // Overflow x2y1\n\n        int256 x1y2 = x1 * y2;\n        if (x1 != 0) assert(x1y2 / x1 == y2); // Overflow x1y2\n\n        x2 = x2 / mulPrecision();\n        y2 = y2 / mulPrecision();\n        int256 x2y2 = x2 * y2;\n        if (x2 != 0) assert(x2y2 / x2 == y2); // Overflow x2y2\n\n        // result = fixed1() * x1 * y1 + x1 * y2 + x2 * y1 + x2 * y2 / fixed1();\n        int256 result = x1y1;\n        result = add(result, x2y1); // Add checks for overflow\n        result = add(result, x1y2); // Add checks for overflow\n        result = add(result, x2y2); // Add checks for overflow\n        return result;\n    }\n \n    /**\n     * @notice 1/x\n     * @dev\n     * Test reciprocal(0) fails\n     * Test reciprocal(fixed1()) returns fixed1()\n     * Test reciprocal(fixed1()*fixed1()) returns 1 // Testing how the fractional is truncated\n     * Test reciprocal(2*fixed1()*fixed1()) returns 0 // Testing how the fractional is truncated\n     */\n    function reciprocal(int256 x) public pure returns (int256) {\n        assert(x != 0);\n        return (fixed1()*fixed1()) / x; // Can't overflow\n    }\n\n    /**\n     * @notice x/y. If the dividend is higher than maxFixedDiv() it\n     * might overflow. You can use multiply(x,reciprocal(y)) instead.\n     * There is a loss of precision on division for the lower mulPrecision() decimals.\n     * @dev\n     * Test divide(fixed1(),0) fails\n     * Test divide(maxFixedDiv(),1) = maxFixedDiv()*(10^digits())\n     * Test divide(maxFixedDiv()+1,1) throws\n     * Test divide(maxFixedDiv(),maxFixedDiv()) returns fixed1()\n     */\n    function divide(int256 x, int256 y) public pure returns (int256) {\n        if (y == fixed1()) return x;\n        assert(y != 0);\n        assert(y <= maxFixedDivisor());\n        return multiply(x, reciprocal(y));\n    }\n\n    /**\n     * @notice x cannot be bigger than 57, as 57!\n     *\n     * @param _x must be a posiitve fixed point integer\n     */\n    function factorial(uint256 _x) public pure returns (int256){\n        require(_x <= 57000000000000000000000000, \"Outside of range\");\n        int256 x = int256(_x);\n        int256 product = fixed1();\n        while(x > fixed1()) {\n            product = multiply(product, x);\n            x -= fixed1();\n        }\n        return product;\n    }\n}",
  "sourcePath": "/root/blockchain/FixedLib/contracts/fixedLib.sol",
  "compiler": {
    "name": "solc",
    "version": "0.5.16+commit.9c3226ce.Emscripten.clang"
  },
  "schemaVersion": "3.1.0",
  "updatedAt": "2020-05-20T01:38:49.678Z",
  "networkType": "ethereum",
  "devdoc": {
    "methods": {
      "abs(int256)": {
        "details": "Test abs(0) returns 0 Test abs(fixed1()) returns -fixed1() Test abs(-fixed1()) returns fixed1() Test abs(newFixed(maxNewFixed())) returns maxNewFixed()*fixed1() Test abs(newFixed(minNewFixed())) returns -minNewFixed()*fixed1()"
      },
      "add(int256,int256)": {
        "details": "Test add(maxFixedAdd(),maxFixedAdd()) returns maxInt256()-1 Test add(maxFixedAdd()+1,maxFixedAdd()+1) fails Test add(-maxFixedSub(),-maxFixedSub()) returns minInt256() Test add(-maxFixedSub()-1,-maxFixedSub()-1) fails Test add(maxInt256(),maxInt256()) fails Test add(minInt256(),minInt256()) fails"
      },
      "convertFixed(int256,uint8,uint8)": {
        "details": "Test convertFixed(1,0,0) returns 1; Test convertFixed(1,1,1) returns 1; Test convertFixed(1,1,0) returns 0; Test convertFixed(1,0,1) returns 10; Test convertFixed(10,1,0) returns 1; Test convertFixed(10,0,1) returns 100; Test convertFixed(100,1,0) returns 10; Test convertFixed(100,0,1) returns 1000; Test convertFixed(1000,2,0) returns 10; Test convertFixed(1000,0,2) returns 100000; Test convertFixed(1000,2,1) returns 100; Test convertFixed(1000,1,2) returns 10000; Test convertFixed(maxInt256,1,0) returns maxInt256/10; Test convertFixed(maxInt256,0,1) throws Test convertFixed(maxInt256,38,0) returns maxInt256/(10**38); Test convertFixed(1,0,38) returns 10**38; Test convertFixed(maxInt256,39,0) throws Test convertFixed(1,0,39) throws"
      },
      "divide(int256,int256)": {
        "details": "Test divide(fixed1(),0) fails Test divide(maxFixedDiv(),1) = maxFixedDiv()*(10^digits()) Test divide(maxFixedDiv()+1,1) throws Test divide(maxFixedDiv(),maxFixedDiv()) returns fixed1()"
      },
      "factorial(uint256)": {
        "params": {
          "_x": "must be a posiitve fixed point integer"
        }
      },
      "fixed1()": {
        "details": "Test fixed1() equals 10^digits() Hardcoded to 24 digits."
      },
      "fractional(int256)": {
        "details": "Test fractional(0) returns 0 Test fractional(fixed1()) returns 0 Test fractional(fixed1()-1) returns 10^24-1 Test fractional(-fixed1()) returns 0 Test fractional(-fixed1()+1) returns -10^24-1"
      },
      "integer(int256)": {
        "details": "Test integer(0) returns 0 Test integer(fixed1()) returns fixed1() Test integer(newFixed(maxNewFixed())) returns maxNewFixed()*fixed1() Test integer(-fixed1()) returns -fixed1() Test integer(newFixed(-maxNewFixed())) returns -maxNewFixed()*fixed1()"
      },
      "maxFixedAdd()": {
        "details": "Test maxFixedAdd() equals maxInt256()-1 / 2 Test add(maxFixedAdd(),maxFixedAdd()) equals maxFixedAdd() + maxFixedAdd() Test add(maxFixedAdd()+1,maxFixedAdd()) throws Test add(-maxFixedAdd(),-maxFixedAdd()) equals -maxFixedAdd() - maxFixedAdd() Test add(-maxFixedAdd(),-maxFixedAdd()-1) throws"
      },
      "maxFixedDiv()": {
        "details": "divide(maxFixedDiv,newFixedFraction(1,fixed1())) = maxInt256(). Test maxFixedDiv() equals maxInt256()/fixed1() Test divide(maxFixedDiv(),multiply(mulPrecision(),mulPrecision())) = maxFixedDiv()*(10^digits()) Test divide(maxFixedDiv()+1,multiply(mulPrecision(),mulPrecision())) throws Hardcoded to 24 digits."
      },
      "maxFixedDivisor()": {
        "details": "Test maxFixedDivisor() equals fixed1()*fixed1() - Or 10**(digits()*2) Test divide(10**(digits()*2 + 1),10**(digits()*2)) = returns 10*fixed1() Test divide(10**(digits()*2 + 1),10**(digits()*2 + 1)) = throws Hardcoded to 24 digits."
      },
      "maxFixedMul()": {
        "details": "Calculated as sqrt(maxInt256()*fixed1()). Be careful with your sqrt() implementation. I couldn't find a calculator that would give the exact square root of maxInt256*fixed1 so this number is below the real number by no more than 3*10**28. It is safe to use as a limit for your multiplications, although powers of two of numbers over this value might still work. Test multiply(maxFixedMul(),maxFixedMul()) equals maxFixedMul() * maxFixedMul() Test multiply(maxFixedMul(),maxFixedMul()+1) throws Test multiply(-maxFixedMul(),maxFixedMul()) equals -maxFixedMul() * maxFixedMul() Test multiply(-maxFixedMul(),maxFixedMul()+1) throws Hardcoded to 24 digits."
      },
      "maxFixedSub()": {
        "details": "Test maxFixedSub() equals minInt256() / 2"
      },
      "maxInt256()": {
        "details": "Test maxInt256() equals 2^255 -1"
      },
      "maxNewFixed()": {
        "details": "deployment. Test maxNewFixed() equals maxInt256() / fixed1() Hardcoded to 24 digits."
      },
      "minInt256()": {
        "details": "Test minInt256 equals (2^255) * (-1)"
      },
      "minNewFixed()": {
        "details": "Test minNewFixed() equals -(maxInt256()) / fixed1() Hardcoded to 24 digits."
      },
      "mulPrecision()": {
        "details": "Test mulPrecision() equals sqrt(fixed1) Hardcoded to 24 digits."
      },
      "multiply(int256,int256)": {
        "details": "Test multiply(0,0) returns 0 Test multiply(maxFixedMul(),0) returns 0 Test multiply(0,maxFixedMul()) returns 0 Test multiply(maxFixedMul(),fixed1()) returns maxFixedMul() Test multiply(fixed1(),maxFixedMul()) returns maxFixedMul() Test all combinations of (2,-2), (2, 2.5), (2, -2.5) and (0.5, -0.5) Test multiply(fixed1()/mulPrecision(),fixed1()*mulPrecision()) Test multiply(maxFixedMul()-1,maxFixedMul()) equals multiply(maxFixedMul(),maxFixedMul()-1) Test multiply(maxFixedMul(),maxFixedMul()) returns maxInt256() // Probably not to the last digits Test multiply(maxFixedMul()+1,maxFixedMul()) fails Test multiply(maxFixedMul(),maxFixedMul()+1) fails"
      },
      "newFixed(int256)": {
        "details": "Test newFixed(0) returns 0 Test newFixed(1) returns fixed1() Test newFixed(maxNewFixed()) returns maxNewFixed() * fixed1() Test newFixed(maxNewFixed()+1) fails"
      },
      "newFixedFraction(int256,int256)": {
        "details": "Test newFixedFraction(maxFixedDiv()+1,1) fails Test newFixedFraction(1,maxFixedDiv()+1) fails Test newFixedFraction(1,0) fails Test newFixedFraction(0,1) returns 0 Test newFixedFraction(1,1) returns fixed1() Test newFixedFraction(maxFixedDiv(),1) returns maxFixedDiv()*fixed1() Test newFixedFraction(1,fixed1()) returns 1 Test newFixedFraction(1,fixed1()-1) returns 0"
      },
      "reciprocal(int256)": {
        "details": "Test reciprocal(0) fails Test reciprocal(fixed1()) returns fixed1() Test reciprocal(fixed1()*fixed1()) returns 1 // Testing how the fractional is truncated Test reciprocal(2*fixed1()*fixed1()) returns 0 // Testing how the fractional is truncated"
      },
      "subtract(int256,int256)": {
        "details": "Tests covered by add(x,y)"
      }
    }
  },
  "userdoc": {
    "methods": {
      "abs(int256)": {
        "notice": "Converts to positive if negative. Due to int256 having one more negative number than positive numbers abs(minInt256) reverts."
      },
      "add(int256,int256)": {
        "notice": "x+y. If any operator is higher than maxFixedAdd() it might overflow. In solidity maxInt256 + 1 = minInt256 and viceversa."
      },
      "convertFixed(int256,uint8,uint8)": {
        "notice": "Converts an int256 which is already in some fixed point representation to a different fixed precision representation. Both the origin and destination precisions must be 38 or less digits. Origin values with a precision higher than the destination precision will be truncated accordingly."
      },
      "digits()": {
        "notice": "Number of positions that the comma is shifted to the right."
      },
      "divide(int256,int256)": {
        "notice": "x/y. If the dividend is higher than maxFixedDiv() it might overflow. You can use multiply(x,reciprocal(y)) instead. There is a loss of precision on division for the lower mulPrecision() decimals."
      },
      "factorial(uint256)": {
        "notice": "x cannot be bigger than 57, as 57!"
      },
      "fixed1()": {
        "notice": "This is 1 in the fixed point units used in this library."
      },
      "fractional(int256)": {
        "notice": "Returns the fractional part of a fixed point number. In the case of a negative number the fractional is also negative."
      },
      "fromFixed(int256)": {
        "notice": "Converts an int256 in the fixed point representation of this library to a non decimal. All decimal digits will be truncated."
      },
      "fromFixed(int256,uint8)": {
        "notice": "Converts an int256 in the fixed point representation of this library to a different representation. The _destinationDigits parameter is the precision of the output x. Values with a precision below than FixidityLib.digits() will be truncated accordingly."
      },
      "integer(int256)": {
        "notice": "Returns the integer part of a fixed point number."
      },
      "maxFixedAdd()": {
        "notice": "Maximum value that can be safely used as an addition operator."
      },
      "maxFixedDiv()": {
        "notice": "Maximum value that can be safely used as a dividend."
      },
      "maxFixedDivisor()": {
        "notice": "Maximum value that can be safely used as a divisor."
      },
      "maxFixedMul()": {
        "notice": "Maximum value that can be safely used as a multiplication operator."
      },
      "maxFixedSub()": {
        "notice": "Maximum negative value that can be safely in a subtraction."
      },
      "maxInt256()": {
        "notice": "Maximum value that can be represented in an int256"
      },
      "maxNewFixed()": {
        "notice": "Maximum value that can be converted to fixed point. Optimize for"
      },
      "minInt256()": {
        "notice": "Minimum value that can be represented in an int256"
      },
      "minNewFixed()": {
        "notice": "Maximum value that can be converted to fixed point. Optimize for deployment."
      },
      "mulPrecision()": {
        "notice": "The amount of decimals lost on each multiplication operand."
      },
      "multiply(int256,int256)": {
        "notice": "x*y. If any of the operators is higher than maxFixedMul() it might overflow."
      },
      "newFixed(int256)": {
        "notice": "Converts an int256 to fixed point units, equivalent to multiplying by 10^digits()."
      },
      "newFixed(int256,uint8)": {
        "notice": "Converts an int256 which is already in some fixed point representation to that of this library. The _originDigits parameter is the precision of x. Values with a precision higher than FixidityLib.digits() will be truncated accordingly."
      },
      "newFixedFraction(int256,int256)": {
        "notice": "Converts two int256 representing a fraction to fixed point units, equivalent to multiplying dividend and divisor by 10^digits()."
      },
      "reciprocal(int256)": {
        "notice": "1/x"
      },
      "subtract(int256,int256)": {
        "notice": "x-y. You can use add(x,-y) instead."
      }
    }
  }
}