{
  "contractName": "hyperLib",
  "abi": [
    {
      "constant": true,
      "inputs": [
        {
          "internalType": "int256",
          "name": "x",
          "type": "int256"
        }
      ],
      "name": "sinh",
      "outputs": [
        {
          "internalType": "int256",
          "name": "results",
          "type": "int256"
        }
      ],
      "payable": false,
      "stateMutability": "pure",
      "type": "function"
    },
    {
      "constant": true,
      "inputs": [
        {
          "internalType": "int256",
          "name": "x",
          "type": "int256"
        }
      ],
      "name": "cosh",
      "outputs": [
        {
          "internalType": "int256",
          "name": "results",
          "type": "int256"
        }
      ],
      "payable": false,
      "stateMutability": "pure",
      "type": "function"
    },
    {
      "constant": true,
      "inputs": [
        {
          "internalType": "int256",
          "name": "x",
          "type": "int256"
        }
      ],
      "name": "tanh",
      "outputs": [
        {
          "internalType": "int256",
          "name": "results",
          "type": "int256"
        }
      ],
      "payable": false,
      "stateMutability": "pure",
      "type": "function"
    },
    {
      "constant": true,
      "inputs": [
        {
          "internalType": "int256",
          "name": "x",
          "type": "int256"
        }
      ],
      "name": "csch",
      "outputs": [
        {
          "internalType": "int256",
          "name": "results",
          "type": "int256"
        }
      ],
      "payable": false,
      "stateMutability": "pure",
      "type": "function"
    },
    {
      "constant": true,
      "inputs": [
        {
          "internalType": "int256",
          "name": "x",
          "type": "int256"
        }
      ],
      "name": "sech",
      "outputs": [
        {
          "internalType": "int256",
          "name": "results",
          "type": "int256"
        }
      ],
      "payable": false,
      "stateMutability": "pure",
      "type": "function"
    },
    {
      "constant": true,
      "inputs": [
        {
          "internalType": "int256",
          "name": "x",
          "type": "int256"
        }
      ],
      "name": "coth",
      "outputs": [
        {
          "internalType": "int256",
          "name": "results",
          "type": "int256"
        }
      ],
      "payable": false,
      "stateMutability": "pure",
      "type": "function"
    }
  ],
  "bytecode": "0x610ed0610026600b82828239805160001a60731461001957fe5b30600052607381538281f3fe730000000000000000000000000000000000000000301460806040526004361061006c5760003560e01c806317cdc976146100715780632f3eb1a4146100b35780635e1f05c7146100f5578063698b4c4b146101375780637ffe815b14610179578063aa13e96a146101bb575b600080fd5b61009d6004803603602081101561008757600080fd5b81019080803590602001909291905050506101fd565b6040518082815260200191505060405180910390f35b6100df600480360360208110156100c957600080fd5b8101908080359060200190929190505050610606565b6040518082815260200191505060405180910390f35b6101216004803603602081101561010b57600080fd5b8101908080359060200190929190505050610731565b6040518082815260200191505060405180910390f35b6101636004803603602081101561014d57600080fd5b810190808035906020019092919050505061085c565b6040518082815260200191505060405180910390f35b6101a56004803603602081101561018f57600080fd5b8101908080359060200190929190505050610977565b6040518082815260200191505060405180910390f35b6101e7600480360360208110156101d157600080fd5b8101908080359060200190929190505050610a92565b6040518082815260200191505060405180910390f35b60006a64ea81408da93eba000000821261027f576040517f08c379a000000000000000000000000000000000000000000000000000000000815260040180806020018281038252601d8152602001807f43616e6e6f7420737570706f7274206c6172676572206e756d6265727300000081525060200191505060405180910390fd5b6000827fffffffffffffffffffffffffffffffffffffffffffffffffffffffffffffffff02905060006a01a784379d99db420000009050600073__fixedLib______________________________63b93ea81273__ExponentLib___________________________63019a916d73__ExponentLib___________________________6369f7f5e16040518163ffffffff1660e01b815260040160206040518083038186803b15801561033057600080fd5b505af4158015610344573d6000803e3d6000fd5b505050506040513d602081101561035a57600080fd5b8101908080519060200190929190505050896040518363ffffffff1660e01b8152600401808381526020018281526020019250505060206040518083038186803b1580156103a757600080fd5b505af41580156103bb573d6000803e3d6000fd5b505050506040513d60208110156103d157600080fd5b810190808051906020019092919050505073__ExponentLib___________________________63019a916d73__ExponentLib___________________________6369f7f5e16040518163ffffffff1660e01b815260040160206040518083038186803b15801561044057600080fd5b505af4158015610454573d6000803e3d6000fd5b505050506040513d602081101561046a57600080fd5b8101908080519060200190929190505050886040518363ffffffff1660e01b8152600401808381526020018281526020019250505060206040518083038186803b1580156104b757600080fd5b505af41580156104cb573d6000803e3d6000fd5b505050506040513d60208110156104e157600080fd5b81019080805190602001909291905050506040518363ffffffff1660e01b8152600401808381526020018281526020019250505060206040518083038186803b15801561052d57600080fd5b505af4158015610541573d6000803e3d6000fd5b505050506040513d602081101561055757600080fd5b8101908080519060200190929190505050905073__fixedLib______________________________63f598423682846040518363ffffffff1660e01b8152600401808381526020018281526020019250505060206040518083038186803b1580156105c157600080fd5b505af41580156105d5573d6000803e3d6000fd5b505050506040513d60208110156105eb57600080fd5b81019080805190602001909291905050509350505050919050565b60006a64ea81408da93eba0000008212610688576040517f08c379a000000000000000000000000000000000000000000000000000000000815260040180806020018281038252601d8152602001807f43616e6e6f7420737570706f7274206c6172676572206e756d6265727300000081525060200191505060405180910390fd5b73__fixedLib______________________________63f59842366106ab84610a92565b6106b4856101fd565b6040518363ffffffff1660e01b8152600401808381526020018281526020019250505060206040518083038186803b1580156106ef57600080fd5b505af4158015610703573d6000803e3d6000fd5b505050506040513d602081101561071957600080fd5b81019080805190602001909291905050509050919050565b60006a64ea81408da93eba00000082126107b3576040517f08c379a000000000000000000000000000000000000000000000000000000000815260040180806020018281038252601d8152602001807f43616e6e6f7420737570706f7274206c6172676572206e756d6265727300000081525060200191505060405180910390fd5b73__fixedLib______________________________63f59842366107d6846101fd565b6107df85610a92565b6040518363ffffffff1660e01b8152600401808381526020018281526020019250505060206040518083038186803b15801561081a57600080fd5b505af415801561082e573d6000803e3d6000fd5b505050506040513d602081101561084457600080fd5b81019080805190602001909291905050509050919050565b60006a64ea81408da93eba00000082126108de576040517f08c379a000000000000000000000000000000000000000000000000000000000815260040180806020018281038252601d8152602001807f43616e6e6f7420737570706f7274206c6172676572206e756d6265727300000081525060200191505060405180910390fd5b73__fixedLib______________________________639c15bca461090184610a92565b6040518263ffffffff1660e01b81526004018082815260200191505060206040518083038186803b15801561093557600080fd5b505af4158015610949573d6000803e3d6000fd5b505050506040513d602081101561095f57600080fd5b81019080805190602001909291905050509050919050565b60006a64ea81408da93eba00000082126109f9576040517f08c379a000000000000000000000000000000000000000000000000000000000815260040180806020018281038252601d8152602001807f43616e6e6f7420737570706f7274206c6172676572206e756d6265727300000081525060200191505060405180910390fd5b73__fixedLib______________________________639c15bca4610a1c846101fd565b6040518263ffffffff1660e01b81526004018082815260200191505060206040518083038186803b158015610a5057600080fd5b505af4158015610a64573d6000803e3d6000fd5b505050506040513d6020811015610a7a57600080fd5b81019080805190602001909291905050509050919050565b60006a64ea81408da93eba0000008212610b14576040517f08c379a000000000000000000000000000000000000000000000000000000000815260040180806020018281038252601d8152602001807f43616e6e6f7420737570706f7274206c6172676572206e756d6265727300000081525060200191505060405180910390fd5b6000827fffffffffffffffffffffffffffffffffffffffffffffffffffffffffffffffff02905060006a01a784379d99db420000009050600073__fixedLib______________________________63a5f3c23b73__ExponentLib___________________________63019a916d73__ExponentLib___________________________6369f7f5e16040518163ffffffff1660e01b815260040160206040518083038186803b158015610bc557600080fd5b505af4158015610bd9573d6000803e3d6000fd5b505050506040513d6020811015610bef57600080fd5b8101908080519060200190929190505050896040518363ffffffff1660e01b8152600401808381526020018281526020019250505060206040518083038186803b158015610c3c57600080fd5b505af4158015610c50573d6000803e3d6000fd5b505050506040513d6020811015610c6657600080fd5b810190808051906020019092919050505073__ExponentLib___________________________63019a916d73__ExponentLib___________________________6369f7f5e16040518163ffffffff1660e01b815260040160206040518083038186803b158015610cd557600080fd5b505af4158015610ce9573d6000803e3d6000fd5b505050506040513d6020811015610cff57600080fd5b8101908080519060200190929190505050886040518363ffffffff1660e01b8152600401808381526020018281526020019250505060206040518083038186803b158015610d4c57600080fd5b505af4158015610d60573d6000803e3d6000fd5b505050506040513d6020811015610d7657600080fd5b81019080805190602001909291905050506040518363ffffffff1660e01b8152600401808381526020018281526020019250505060206040518083038186803b158015610dc257600080fd5b505af4158015610dd6573d6000803e3d6000fd5b505050506040513d6020811015610dec57600080fd5b8101908080519060200190929190505050905073__fixedLib______________________________63f598423682846040518363ffffffff1660e01b8152600401808381526020018281526020019250505060206040518083038186803b158015610e5657600080fd5b505af4158015610e6a573d6000803e3d6000fd5b505050506040513d6020811015610e8057600080fd5b8101908080519060200190929190505050935050505091905056fea265627a7a72315820515f293e23e4d89f45e7177bb2ce5d59758118bf99f137373e4e183c817879aa64736f6c63430005100032",
  "source": "pragma solidity >=0.4.22 <0.7.0;\n\nimport \"./fixedLib.sol\";\nimport \"./ExponentLib.sol\";\n\nlibrary hyperLib {\n\n    /**\n    * Approximation of sinh() using indentity\n    * @param x fixed point integers\n    * @dev sinh grows expotentially thus small numbers quickly run out of the scope of a int256\n     */\n    function sinh(int256 x) public pure returns(int256 results) {\n        require(x < 122000000000000000000000000, \"Cannot support larger numbers\");\n        int256 neg_x = -1 * x;\n        int256 denominator = 2000000000000000000000000;\n        int256 numerator = fixedLib.subtract(\n            ExponentLib.powerAny(ExponentLib.fixedE(), x),\n            ExponentLib.powerAny(ExponentLib.fixedE(), neg_x)\n        );\n        return fixedLib.divide(numerator,denominator);\n    }\n\n    /**\n    * Approximation of sinh() using indentity\n    * @param x fixed point integers\n     */\n    function cosh(int256 x) public pure returns(int256 results) {\n        require(x < 122000000000000000000000000, \"Cannot support larger numbers\");\n        int256 neg_x = -1 * x;\n        int256 denominator = 2000000000000000000000000;\n        int256 numerator = fixedLib.add(\n            ExponentLib.powerAny(ExponentLib.fixedE(), x),\n            ExponentLib.powerAny(ExponentLib.fixedE(), neg_x)\n        );\n        return fixedLib.divide(numerator,denominator);\n    }\n\n    /**\n    * Approximation of tanh() using sinh and cosh\n    * @param x fixed point integers\n     */\n    function tanh(int256 x) public pure returns(int256 results) {\n        require(x < 122000000000000000000000000, \"Cannot support larger numbers\");\n        return fixedLib.divide(sinh(x), cosh(x));\n    }\n\n    /**\n    * Approximation of csch() using the reciprocal of sinh\n    * @param x fixed point integers\n     */\n    function csch(int256 x) public pure returns(int256 results) {\n        require(x < 122000000000000000000000000, \"Cannot support larger numbers\");\n        return fixedLib.reciprocal(sinh(x));\n    }\n\n    /**\n    * Approximation of sech() using the reciprocoal of cosh\n    * @param x fixed point integers\n     */\n    function sech(int256 x) public pure returns(int256 results) {\n        require(x < 122000000000000000000000000, \"Cannot support larger numbers\");\n        return fixedLib.reciprocal(cosh(x));\n    }\n\n    /**\n    * Approximation of sinh() using cosh and sinh\n    * @param x fixed point integers\n     */\n    function coth(int256 x) public pure returns(int256 results) {\n    require(x < 122000000000000000000000000, \"Cannot support larger numbers\");\n        return fixedLib.divide(cosh(x), sinh(x));\n    }\n}",
  "sourcePath": "/root/blockchain/FixedLib/contracts/hyperLib.sol",
  "compiler": {
    "name": "solc",
    "version": "0.5.16+commit.9c3226ce.Emscripten.clang"
  },
  "schemaVersion": "3.1.0",
  "updatedAt": "2020-05-20T00:16:24.518Z",
  "devdoc": {
    "methods": {
      "cosh(int256)": {
        "params": {
          "x": "fixed point integers"
        }
      },
      "coth(int256)": {
        "params": {
          "x": "fixed point integers"
        }
      },
      "csch(int256)": {
        "params": {
          "x": "fixed point integers"
        }
      },
      "sech(int256)": {
        "params": {
          "x": "fixed point integers"
        }
      },
      "sinh(int256)": {
        "details": "sinh grows expotentially thus small numbers quickly run out of the scope of a int256",
        "params": {
          "x": "fixed point integers"
        }
      },
      "tanh(int256)": {
        "params": {
          "x": "fixed point integers"
        }
      }
    }
  },
  "userdoc": {
    "methods": {
      "cosh(int256)": {
        "notice": "Approximation of sinh() using indentity"
      },
      "coth(int256)": {
        "notice": "Approximation of sinh() using cosh and sinh"
      },
      "csch(int256)": {
        "notice": "Approximation of csch() using the reciprocal of sinh"
      },
      "sech(int256)": {
        "notice": "Approximation of sech() using the reciprocoal of cosh"
      },
      "sinh(int256)": {
        "notice": "Approximation of sinh() using indentity"
      },
      "tanh(int256)": {
        "notice": "Approximation of tanh() using sinh and cosh"
      }
    }
  }
}