{
  "contractName": "LogarithmLib",
  "abi": [
    {
      "constant": true,
      "inputs": [],
      "name": "fixedE",
      "outputs": [
        {
          "internalType": "int256",
          "name": "",
          "type": "int256"
        }
      ],
      "payable": false,
      "stateMutability": "pure",
      "type": "function"
    },
    {
      "constant": true,
      "inputs": [],
      "name": "fixedLn1_5",
      "outputs": [
        {
          "internalType": "int256",
          "name": "",
          "type": "int256"
        }
      ],
      "payable": false,
      "stateMutability": "pure",
      "type": "function"
    },
    {
      "constant": true,
      "inputs": [],
      "name": "fixedLn10",
      "outputs": [
        {
          "internalType": "int256",
          "name": "",
          "type": "int256"
        }
      ],
      "payable": false,
      "stateMutability": "pure",
      "type": "function"
    },
    {
      "constant": true,
      "inputs": [
        {
          "internalType": "int256",
          "name": "value",
          "type": "int256"
        }
      ],
      "name": "ln",
      "outputs": [
        {
          "internalType": "int256",
          "name": "",
          "type": "int256"
        }
      ],
      "payable": false,
      "stateMutability": "pure",
      "type": "function"
    },
    {
      "constant": true,
      "inputs": [
        {
          "internalType": "int256",
          "name": "b",
          "type": "int256"
        },
        {
          "internalType": "int256",
          "name": "x",
          "type": "int256"
        }
      ],
      "name": "log_b",
      "outputs": [
        {
          "internalType": "int256",
          "name": "",
          "type": "int256"
        }
      ],
      "payable": false,
      "stateMutability": "pure",
      "type": "function"
    }
  ],
  "bytecode": "0x610ca3610026600b82828239805160001a60731461001957fe5b30600052607381538281f3fe73000000000000000000000000000000000000000030146080604052600436106100615760003560e01c80631cd9fcfa1461006657806324a9ea9d1461008457806369f7f5e1146100d057806370849606146100ee5780638e6f23531461010c575b600080fd5b61006e61014e565b6040518082815260200191505060405180910390f35b6100ba6004803603604081101561009a57600080fd5b810190808035906020019092919080359060200190929190505050610160565b6040518082815260200191505060405180910390f35b6100d861033e565b6040518082815260200191505060405180910390f35b6100f6610351565b6040518082815260200191505060405180910390f35b6101386004803603602081101561012257600080fd5b8101908080359060200190929190505050610364565b6040518082815260200191505060405180910390f35b60006955dc4ebbda29bf12ad9d905090565b6000600a73__fixedLib______________________________632179bb6c6040518163ffffffff1660e01b815260040160206040518083038186803b1580156101a857600080fd5b505af41580156101bc573d6000803e3d6000fd5b505050506040513d60208110156101d257600080fd5b8101908080519060200190929190505050028314156102935773__fixedLib______________________________63f598423661020e84610364565b610216610351565b6040518363ffffffff1660e01b8152600401808381526020018281526020019250505060206040518083038186803b15801561025157600080fd5b505af4158015610265573d6000803e3d6000fd5b505050506040513d602081101561027b57600080fd5b81019080805190602001909291905050509050610338565b73__fixedLib______________________________63f59842366102b684610364565b6102bf86610364565b6040518363ffffffff1660e01b8152600401808381526020018281526020019250505060206040518083038186803b1580156102fa57600080fd5b505af415801561030e573d6000803e3d6000fd5b505050506040513d602081101561032457600080fd5b810190808051906020019092919050505090505b92915050565b60006a023f9e5a6acd2121ba821f905090565b60006a01e79763547b68e97ceb47905090565b60008082121561037057fe5b600082905060008090505b600a73__fixedLib______________________________632179bb6c6040518163ffffffff1660e01b815260040160206040518083038186803b1580156103c157600080fd5b505af41580156103d5573d6000803e3d6000fd5b505050506040513d60208110156103eb57600080fd5b81019080805190602001909291905050508161040357fe5b05821361042157600a82029150610418610351565b8103905061037b565b5b73__fixedLib______________________________632179bb6c6040518163ffffffff1660e01b815260040160206040518083038186803b15801561046657600080fd5b505af415801561047a573d6000803e3d6000fd5b505050506040513d602081101561049057600080fd5b8101908080519060200190929190505050600a0282126104c857600a82816104b457fe5b0591506104bf610351565b81019050610422565b5b73__fixedLib______________________________632179bb6c6040518163ffffffff1660e01b815260040160206040518083038186803b15801561050d57600080fd5b505af4158015610521573d6000803e3d6000fd5b505050506040513d602081101561053757600080fd5b81019080805190602001909291905050508212156106725773__fixedLib______________________________633c4308a88361057261033e565b6040518363ffffffff1660e01b8152600401808381526020018281526020019250505060206040518083038186803b1580156105ad57600080fd5b505af41580156105c1573d6000803e3d6000fd5b505050506040513d60208110156105d757600080fd5b8101908080519060200190929190505050915073__fixedLib______________________________632179bb6c6040518163ffffffff1660e01b815260040160206040518083038186803b15801561062e57600080fd5b505af4158015610642573d6000803e3d6000fd5b505050506040513d602081101561065857600080fd5b8101908080519060200190929190505050810390506104c9565b5b61067b61033e565b8213156107a55773__fixedLib______________________________63f5984236836106a561033e565b6040518363ffffffff1660e01b8152600401808381526020018281526020019250505060206040518083038186803b1580156106e057600080fd5b505af41580156106f4573d6000803e3d6000fd5b505050506040513d602081101561070a57600080fd5b8101908080519060200190929190505050915073__fixedLib______________________________632179bb6c6040518163ffffffff1660e01b815260040160206040518083038186803b15801561076157600080fd5b505af4158015610775573d6000803e3d6000fd5b505050506040513d602081101561078b57600080fd5b810190808051906020019092919050505081019050610673565b73__fixedLib______________________________632179bb6c6040518163ffffffff1660e01b815260040160206040518083038186803b1580156107e957600080fd5b505af41580156107fd573d6000803e3d6000fd5b505050506040513d602081101561081357600080fd5b8101908080519060200190929190505050821415610835578092505050610c69565b61083d61033e565b8214156108ce578073__fixedLib______________________________632179bb6c6040518163ffffffff1660e01b815260040160206040518083038186803b15801561088957600080fd5b505af415801561089d573d6000803e3d6000fd5b505050506040513d60208110156108b357600080fd5b81019080805190602001909291905050500192505050610c69565b600273__fixedLib______________________________632179bb6c6040518163ffffffff1660e01b815260040160206040518083038186803b15801561091457600080fd5b505af4158015610928573d6000803e3d6000fd5b505050506040513d602081101561093e57600080fd5b81019080805190602001909291905050506003028161095957fe5b058203915061096661014e565b81019050600073__fixedLib______________________________632179bb6c6040518163ffffffff1660e01b815260040160206040518083038186803b1580156109b057600080fd5b505af41580156109c4573d6000803e3d6000fd5b505050506040513d60208110156109da57600080fd5b810190808051906020019092919050505060030283018373__fixedLib______________________________632179bb6c6040518163ffffffff1660e01b815260040160206040518083038186803b158015610a3557600080fd5b505af4158015610a49573d6000803e3d6000fd5b505050506040513d6020811015610a5f57600080fd5b81019080805190602001909291905050500281610a7857fe5b0590508060020282019150600073__fixedLib______________________________632179bb6c6040518163ffffffff1660e01b815260040160206040518083038186803b158015610ac957600080fd5b505af4158015610add573d6000803e3d6000fd5b505050506040513d6020811015610af357600080fd5b810190808051906020019092919050505082830281610b0e57fe5b0590506000600390505b600115610c605773__fixedLib______________________________632179bb6c6040518163ffffffff1660e01b815260040160206040518083038186803b158015610b6357600080fd5b505af4158015610b77573d6000803e3d6000fd5b505050506040513d6020811015610b8d57600080fd5b810190808051906020019092919050505082840281610ba857fe5b0592508060ff168360020281610bba57fe5b058401935060028101905073__fixedLib______________________________639e20437c6040518163ffffffff1660e01b815260040160206040518083038186803b158015610c0957600080fd5b505af4158015610c1d573d6000803e3d6000fd5b505050506040513d6020811015610c3357600080fd5b810190808051906020019092919050505060020260030160ff168160ff1610610c5b57610c60565b610b18565b83955050505050505b91905056fea265627a7a72315820b3ab3476af773a9bd37baf98892eb1468a056358bba2c78a86e23183a02f02b064736f6c63430005100032",
  "source": "pragma solidity >=0.4.22 <0.7.0;\n\nimport \"./fixedLib.sol\";\n\n\n/**\n * @title LogarithmLib\n * @notice This library extends FixidityLib with logarithm operations.\n */\nlibrary LogarithmLib {\n\n    /**\n     * @notice This is e in the fixed point units used in this library.\n     * @dev 27182818284590452353602874713526624977572470936999595749669676277240766303535/fixed1()\n     * Hardcoded to 24 digits.\n     */\n    function fixedE() public pure returns(int256) {\n        return 2718281828459045235360287;\n    }\n\n    /**\n     * @notice ln(1.5), hardcoded with the comma 24 positions to the right.\n     */\n    // solium-disable-next-line mixedcase\n    function fixedLn1_5() public pure returns(int256) {\n        return 405465108108164381978013;\n    }\n\n    /**\n     * @notice ln(10), hardcoded with the comma 24 positions to the right.\n     */\n    function fixedLn10() public pure returns(int256) {\n        return 2302585092994045684017991;\n    }\n\n    /**\n     * @notice ln(x)\n     * This function has a 1/50 deviation close to ln(-1),\n     * 1/maxFixedMul() deviation at fixedE()**2, but diverges to 10x\n     * deviation at maxNewFixed().\n     * @dev\n     * Test ln(0) fails\n     * Test ln(-fixed1()) fails\n     * Test ln(fixed1()) returns 0\n     * Test ln(fixedE()) returns fixed1()\n     * Test ln(fixedE()*fixedE()) returns ln(fixedE())+ln(fixedE())\n     * Test ln(maxInt256) returns 176752531042786059920093411119162458112\n     * Test ln(1) returns -82\n     */\n    function ln(int256 value) public pure returns (int256) {\n        assert(value >= 0);\n        int256 v = value;\n        int256 r = 0;\n        while (v <= fixedLib.fixed1() / 10) {\n            v = v * 10;\n            r -= fixedLn10();\n        }\n        while (v >= 10 * fixedLib.fixed1()) {\n            v = v / 10;\n            r += fixedLn10();\n        }\n        while (v < fixedLib.fixed1()) {\n            v = fixedLib.multiply(v, fixedE());\n            r -= fixedLib.fixed1();\n        }\n        while (v > fixedE()) {\n            v = fixedLib.divide(v, fixedE());\n            r += fixedLib.fixed1();\n        }\n        if (v == fixedLib.fixed1()) {\n            return r;\n        }\n        if (v == fixedE()) {\n            return fixedLib.fixed1() + r;\n        }\n\n        v = v - 3 * fixedLib.fixed1() / 2;\n        r = r + fixedLn1_5();\n        int256 m = fixedLib.fixed1() * v / (v + 3 * fixedLib.fixed1());\n        r = r + 2 * m;\n        // solium-disable-next-line mixedcase\n        int256 m_2 = m * m / fixedLib.fixed1();\n        uint8 i = 3;\n        while (true) {\n            m = m * m_2 / fixedLib.fixed1();\n            r = r + 2 * m / int256(i);\n            i += 2;\n            if (i >= 3 + 2 * fixedLib.digits()) break;\n        }\n        return r;\n    }\n\n    /**\n     * @notice log_b(x).\n     * *param int256 b Base in fixed point representation.\n     * @dev Tests covered by ln(x) and divide(a,b)\n     */\n    // solium-disable-next-line mixedcase\n    function log_b(int256 b, int256 x) public pure returns (int256) {\n        if (b == fixedLib.fixed1()*10)\n            return fixedLib.divide(ln(x), fixedLn10());\n        return fixedLib.divide(ln(x), ln(b));\n    }\n}",
  "sourcePath": "/root/blockchain/FixedLib/contracts/LogarithmLib.sol",
  "compiler": {
    "name": "solc",
    "version": "0.5.16+commit.9c3226ce.Emscripten.clang"
  },
  "schemaVersion": "3.1.0",
  "updatedAt": "2020-05-20T00:16:24.500Z",
  "devdoc": {
    "methods": {
      "fixedE()": {
        "details": "27182818284590452353602874713526624977572470936999595749669676277240766303535/fixed1() Hardcoded to 24 digits."
      },
      "ln(int256)": {
        "details": "Test ln(0) fails Test ln(-fixed1()) fails Test ln(fixed1()) returns 0 Test ln(fixedE()) returns fixed1() Test ln(fixedE()*fixedE()) returns ln(fixedE())+ln(fixedE()) Test ln(maxInt256) returns 176752531042786059920093411119162458112 Test ln(1) returns -82"
      },
      "log_b(int256,int256)": {
        "details": "Tests covered by ln(x) and divide(a,b)"
      }
    },
    "title": "LogarithmLib"
  },
  "userdoc": {
    "methods": {
      "fixedE()": {
        "notice": "This is e in the fixed point units used in this library."
      },
      "fixedLn10()": {
        "notice": "ln(10), hardcoded with the comma 24 positions to the right."
      },
      "fixedLn1_5()": {
        "notice": "ln(1.5), hardcoded with the comma 24 positions to the right."
      },
      "ln(int256)": {
        "notice": "ln(x) This function has a 1/50 deviation close to ln(-1), 1/maxFixedMul() deviation at fixedE()**2, but diverges to 10x deviation at maxNewFixed()."
      },
      "log_b(int256,int256)": {
        "notice": "log_b(x). *param int256 b Base in fixed point representation."
      }
    },
    "notice": "This library extends FixidityLib with logarithm operations."
  }
}