{
  "contractName": "trigLib",
  "abi": [
    {
      "constant": true,
      "inputs": [],
      "name": "fixedPi",
      "outputs": [
        {
          "internalType": "int256",
          "name": "result",
          "type": "int256"
        }
      ],
      "payable": false,
      "stateMutability": "pure",
      "type": "function"
    },
    {
      "constant": true,
      "inputs": [],
      "name": "fixedHalfPi",
      "outputs": [
        {
          "internalType": "int256",
          "name": "result",
          "type": "int256"
        }
      ],
      "payable": false,
      "stateMutability": "pure",
      "type": "function"
    },
    {
      "constant": true,
      "inputs": [],
      "name": "fixedQuarterPi",
      "outputs": [
        {
          "internalType": "int256",
          "name": "result",
          "type": "int256"
        }
      ],
      "payable": false,
      "stateMutability": "pure",
      "type": "function"
    },
    {
      "constant": true,
      "inputs": [],
      "name": "fixedThirdPi",
      "outputs": [
        {
          "internalType": "int256",
          "name": "result",
          "type": "int256"
        }
      ],
      "payable": false,
      "stateMutability": "pure",
      "type": "function"
    },
    {
      "constant": true,
      "inputs": [
        {
          "internalType": "uint256",
          "name": "_x",
          "type": "uint256"
        }
      ],
      "name": "sin",
      "outputs": [
        {
          "internalType": "int256",
          "name": "result",
          "type": "int256"
        }
      ],
      "payable": false,
      "stateMutability": "pure",
      "type": "function"
    },
    {
      "constant": true,
      "inputs": [
        {
          "internalType": "uint256",
          "name": "_y",
          "type": "uint256"
        }
      ],
      "name": "cos",
      "outputs": [
        {
          "internalType": "int256",
          "name": "result",
          "type": "int256"
        }
      ],
      "payable": false,
      "stateMutability": "pure",
      "type": "function"
    },
    {
      "constant": true,
      "inputs": [
        {
          "internalType": "uint256",
          "name": "x",
          "type": "uint256"
        }
      ],
      "name": "tan",
      "outputs": [
        {
          "internalType": "int256",
          "name": "result",
          "type": "int256"
        }
      ],
      "payable": false,
      "stateMutability": "pure",
      "type": "function"
    },
    {
      "constant": true,
      "inputs": [
        {
          "internalType": "uint256",
          "name": "x",
          "type": "uint256"
        }
      ],
      "name": "csc",
      "outputs": [
        {
          "internalType": "int256",
          "name": "result",
          "type": "int256"
        }
      ],
      "payable": false,
      "stateMutability": "pure",
      "type": "function"
    },
    {
      "constant": true,
      "inputs": [
        {
          "internalType": "uint256",
          "name": "x",
          "type": "uint256"
        }
      ],
      "name": "sec",
      "outputs": [
        {
          "internalType": "int256",
          "name": "result",
          "type": "int256"
        }
      ],
      "payable": false,
      "stateMutability": "pure",
      "type": "function"
    },
    {
      "constant": true,
      "inputs": [
        {
          "internalType": "uint256",
          "name": "x",
          "type": "uint256"
        }
      ],
      "name": "cot",
      "outputs": [
        {
          "internalType": "int256",
          "name": "result",
          "type": "int256"
        }
      ],
      "payable": false,
      "stateMutability": "pure",
      "type": "function"
    },
    {
      "constant": true,
      "inputs": [
        {
          "internalType": "uint16",
          "name": "_x",
          "type": "uint16"
        }
      ],
      "name": "SinDegreeInt",
      "outputs": [
        {
          "internalType": "int256",
          "name": "result",
          "type": "int256"
        }
      ],
      "payable": false,
      "stateMutability": "pure",
      "type": "function"
    },
    {
      "constant": true,
      "inputs": [
        {
          "internalType": "uint256",
          "name": "x",
          "type": "uint256"
        }
      ],
      "name": "sinDegree",
      "outputs": [
        {
          "internalType": "int256",
          "name": "result",
          "type": "int256"
        }
      ],
      "payable": false,
      "stateMutability": "pure",
      "type": "function"
    },
    {
      "constant": true,
      "inputs": [
        {
          "internalType": "uint256",
          "name": "x",
          "type": "uint256"
        }
      ],
      "name": "cosDegree",
      "outputs": [
        {
          "internalType": "int256",
          "name": "result",
          "type": "int256"
        }
      ],
      "payable": false,
      "stateMutability": "pure",
      "type": "function"
    },
    {
      "constant": true,
      "inputs": [
        {
          "internalType": "uint256",
          "name": "x",
          "type": "uint256"
        }
      ],
      "name": "tanDegree",
      "outputs": [
        {
          "internalType": "int256",
          "name": "result",
          "type": "int256"
        }
      ],
      "payable": false,
      "stateMutability": "pure",
      "type": "function"
    },
    {
      "constant": true,
      "inputs": [
        {
          "internalType": "uint256",
          "name": "x",
          "type": "uint256"
        }
      ],
      "name": "secDegree",
      "outputs": [
        {
          "internalType": "int256",
          "name": "result",
          "type": "int256"
        }
      ],
      "payable": false,
      "stateMutability": "pure",
      "type": "function"
    },
    {
      "constant": true,
      "inputs": [
        {
          "internalType": "uint256",
          "name": "x",
          "type": "uint256"
        }
      ],
      "name": "cscDegree",
      "outputs": [
        {
          "internalType": "int256",
          "name": "result",
          "type": "int256"
        }
      ],
      "payable": false,
      "stateMutability": "pure",
      "type": "function"
    },
    {
      "constant": true,
      "inputs": [
        {
          "internalType": "uint256",
          "name": "x",
          "type": "uint256"
        }
      ],
      "name": "cotDegree",
      "outputs": [
        {
          "internalType": "int256",
          "name": "result",
          "type": "int256"
        }
      ],
      "payable": false,
      "stateMutability": "pure",
      "type": "function"
    }
  ],
  "bytecode": "0x611b89610026600b82828239805160001a60731461001957fe5b30600052607381538281f3fe73000000000000000000000000000000000000000030146080604052600436106101155760003560e01c806371ecb1cc116100ac578063afae21321161007b578063afae2132146103a6578063b28ad59a146103e8578063cb5cc1091461042a578063cda1b68f1461046c578063d75ec3fc146104ae57610115565b806371ecb1cc146102e257806373c139fa146103005780638b1334d114610346578063a58b00ba1461036457610115565b80633a93c363116100e85780633a93c363146102225780633b736a71146102645780634e5517a5146102a65780636900bbbd146102c457610115565b8063034947aa1461011a578063080776261461015c5780631067e8d31461019e5780631c1d094b146101e0575b600080fd5b6101466004803603602081101561013057600080fd5b81019080803590602001909291905050506104f0565b6040518082815260200191505060405180910390f35b6101886004803603602081101561017257600080fd5b8101908080359060200190929190505050610625565b6040518082815260200191505060405180910390f35b6101ca600480360360208110156101b457600080fd5b810190808035906020019092919050505061076d565b6040518082815260200191505060405180910390f35b61020c600480360360208110156101f657600080fd5b810190808035906020019092919050505061089e565b6040518082815260200191505060405180910390f35b61024e6004803603602081101561023857600080fd5b81019080803590602001909291905050506109c3565b6040518082815260200191505060405180910390f35b6102906004803603602081101561027a57600080fd5b8101908080359060200190929190505050610a7b565b6040518082815260200191505060405180910390f35b6102ae610b5c565b6040518082815260200191505060405180910390f35b6102cc610b6f565b6040518082815260200191505060405180910390f35b6102ea610b81565b6040518082815260200191505060405180910390f35b6103306004803603602081101561031657600080fd5b81019080803561ffff169060200190929190505050610b94565b6040518082815260200191505060405180910390f35b61034e610bbb565b6040518082815260200191505060405180910390f35b6103906004803603602081101561037a57600080fd5b8101908080359060200190929190505050610bcd565b6040518082815260200191505060405180910390f35b6103d2600480360360208110156103bc57600080fd5b8101908080359060200190929190505050610d41565b6040518082815260200191505060405180910390f35b610414600480360360208110156103fe57600080fd5b8101908080359060200190929190505050610df6565b6040518082815260200191505060405180910390f35b6104566004803603602081101561044057600080fd5b8101908080359060200190929190505050610f4e565b6040518082815260200191505060405180910390f35b6104986004803603602081101561048257600080fd5b81019080803590602001909291905050506115b5565b6040518082815260200191505060405180910390f35b6104da600480360360208110156104c457600080fd5b8101908080359060200190929190505050611a63565b6040518082815260200191505060405180910390f35b6000806a94e47b8d68171534000000838161050757fe5b06141561057c576040517f08c379a00000000000000000000000000000000000000000000000000000000081526004018080602001828103825260178152602001807f4e6f742076616c696420696e2074686520646f6d61696e00000000000000000081525060200191505060405180910390fd5b73__fixedLib______________________________63f598423661059f84610d41565b6105a8856115b5565b6040518363ffffffff1660e01b8152600401808381526020018281526020019250505060206040518083038186803b1580156105e357600080fd5b505af41580156105f7573d6000803e3d6000fd5b505050506040513d602081101561060d57600080fd5b81019080805190602001909291905050509050919050565b6000620186a06a0ee3a5f48a68b552000000838161063f57fe5b0713156106d457620186a06a4a723dc6b40b8a9a000000838161065e57fe5b0712156106d3576040517f08c379a00000000000000000000000000000000000000000000000000000000081526004018080602001828103825260178152602001807f4e6f742076616c696420696e2074686520646f6d61696e00000000000000000081525060200191505060405180910390fd5b5b73__fixedLib______________________________639c15bca46106f784610d41565b6040518263ffffffff1660e01b81526004018082815260200191505060206040518083038186803b15801561072b57600080fd5b505af415801561073f573d6000803e3d6000fd5b505050506040513d602081101561075557600080fd5b81019080805190602001909291905050509050919050565b600080610778610b5c565b838161078057fe5b0714156107f5576040517f08c379a00000000000000000000000000000000000000000000000000000000081526004018080602001828103825260178152602001807f4e6f742076616c696420696e2074686520646f6d61696e00000000000000000081525060200191505060405180910390fd5b73__fixedLib______________________________63f598423661081884610bcd565b61082185610f4e565b6040518363ffffffff1660e01b8152600401808381526020018281526020019250505060206040518083038186803b15801561085c57600080fd5b505af4158015610870573d6000803e3d6000fd5b505050506040513d602081101561088657600080fd5b81019080805190602001909291905050509050919050565b6000806a94e47b8d6817153400000083816108b557fe5b06141561092a576040517f08c379a00000000000000000000000000000000000000000000000000000000081526004018080602001828103825260178152602001807f4e6f742076616c696420696e2074686520646f6d61696e00000000000000000081525060200191505060405180910390fd5b73__fixedLib______________________________639c15bca461094d846115b5565b6040518263ffffffff1660e01b81526004018082815260200191505060206040518083038186803b15801561098157600080fd5b505af4158015610995573d6000803e3d6000fd5b505050506040513d60208110156109ab57600080fd5b81019080805190602001909291905050509050919050565b6000806109ce610b5c565b83816109d657fe5b0714156109e257600080fd5b73__fixedLib______________________________639c15bca4610a0584610f4e565b6040518263ffffffff1660e01b81526004018082815260200191505060206040518083038186803b158015610a3957600080fd5b505af4158015610a4d573d6000803e3d6000fd5b505050506040513d6020811015610a6357600080fd5b81019080805190602001909291905050509050919050565b6000620186a0610a89610b5c565b8381610a9157fe5b071315610ac357620186a06002610aa6610b5c565b81610aad57fe5b058381610ab657fe5b071215610ac257600080fd5b5b73__fixedLib______________________________639c15bca4610ae684610bcd565b6040518263ffffffff1660e01b81526004018082815260200191505060206040518083038186803b158015610b1a57600080fd5b505af4158015610b2e573d6000803e3d6000fd5b505050506040513d6020811015610b4457600080fd5b81019080805190602001909291905050509050919050565b60006a0299421439a0abd72cb0b3905090565b600069a650850e682af5cb2c2c905090565b60006a014ca10a1cd055eb965859905090565b60008069d3c21bcecceda10000008361ffff16029050610bb3816115b5565b915050919050565b600069ddc0b1688ae3f2643ae6905090565b60008073__fixedLib______________________________633c4308a86a01a784379d99db42000000610bfe610b5c565b6040518363ffffffff1660e01b8152600401808381526020018281526020019250505060206040518083038186803b158015610c3957600080fd5b505af4158015610c4d573d6000803e3d6000fd5b505050506040513d6020811015610c6357600080fd5b81019080805190602001909291905050508381610c7c57fe5b079050600073__fixedLib______________________________63f5984236610ca3610b5c565b6a01a784379d99db420000006040518363ffffffff1660e01b8152600401808381526020018281526020019250505060206040518083038186803b158015610cea57600080fd5b505af4158015610cfe573d6000803e3d6000fd5b505050506040513d6020811015610d1457600080fd5b8101908080519060200190929190505050905060008282019050610d3781610f4e565b9350505050919050565b6000806b0129c8f71ad02e2a680000008381610d5957fe5b0790506000600190506a4a723dc6b40b8a9a00000082138015610d8657506adf56b9541c229fce00000082125b15610daf577fffffffffffffffffffffffffffffffffffffffffffffffffffffffffffffffff90505b60006a4a723dc6b40b8a9a00000090506000818601905060006a94e47b8d681715340000008281610ddc57fe5b06905083610de9826115b5565b0295505050505050919050565b6000620186a06a0ee3a5f48a68b5520000008381610e1057fe5b071315610ea557620186a06a4a723dc6b40b8a9a0000008381610e2f57fe5b071215610ea4576040517f08c379a00000000000000000000000000000000000000000000000000000000081526004018080602001828103825260178152602001807f4e6f742076616c696420696e2074686520646f6d61696e00000000000000000081525060200191505060405180910390fd5b5b73__fixedLib______________________________63f5984236610ec8846115b5565b610ed185610d41565b6040518363ffffffff1660e01b8152600401808381526020018281526020019250505060206040518083038186803b158015610f0c57600080fd5b505af4158015610f20573d6000803e3d6000fd5b505050506040513d6020811015610f3657600080fd5b81019080805190602001909291905050509050919050565b600080610f59610b5c565b6002028381610f6457fe5b0790506000610f71610b5c565b8481610f7957fe5b079050600060019050610f8a610b5c565b831315610fb5577fffffffffffffffffffffffffffffffffffffffffffffffffffffffffffffffff90505b600073__fixedLib______________________________633c4308a873__fixedLib______________________________633c4308a86a0d3c21bcecceda10000000876040518363ffffffff1660e01b8152600401808381526020018281526020019250505060206040518083038186803b15801561103357600080fd5b505af4158015611047573d6000803e3d6000fd5b505050506040513d602081101561105d57600080fd5b810190808051906020019092919050505073__fixedLib______________________________63b93ea812611090610b5c565b886040518363ffffffff1660e01b8152600401808381526020018281526020019250505060206040518083038186803b1580156110cc57600080fd5b505af41580156110e0573d6000803e3d6000fd5b505050506040513d60208110156110f657600080fd5b81019080805190602001909291905050506040518363ffffffff1660e01b8152600401808381526020018281526020019250505060206040518083038186803b15801561114257600080fd5b505af4158015611156573d6000803e3d6000fd5b505050506040513d602081101561116c57600080fd5b81019080805190602001909291905050509050600073__fixedLib______________________________63b93ea81273__fixedLib______________________________633c4308a873__fixedLib______________________________633c4308a86a0422ca8b0a00a4250000006111e3610b5c565b6040518363ffffffff1660e01b8152600401808381526020018281526020019250505060206040518083038186803b15801561121e57600080fd5b505af4158015611232573d6000803e3d6000fd5b505050506040513d602081101561124857600080fd5b8101908080519060200190929190505050611261610b5c565b6040518363ffffffff1660e01b8152600401808381526020018281526020019250505060206040518083038186803b15801561129c57600080fd5b505af41580156112b0573d6000803e3d6000fd5b505050506040513d60208110156112c657600080fd5b810190808051906020019092919050505073__fixedLib______________________________633c4308a873__fixedLib______________________________633c4308a86a034f086f3b33b6840000008b6040518363ffffffff1660e01b8152600401808381526020018281526020019250505060206040518083038186803b15801561135357600080fd5b505af4158015611367573d6000803e3d6000fd5b505050506040513d602081101561137d57600080fd5b810190808051906020019092919050505073__fixedLib______________________________63b93ea8126113b0610b5c565b8c6040518363ffffffff1660e01b8152600401808381526020018281526020019250505060206040518083038186803b1580156113ec57600080fd5b505af4158015611400573d6000803e3d6000fd5b505050506040513d602081101561141657600080fd5b81019080805190602001909291905050506040518363ffffffff1660e01b8152600401808381526020018281526020019250505060206040518083038186803b15801561146257600080fd5b505af4158015611476573d6000803e3d6000fd5b505050506040513d602081101561148c57600080fd5b81019080805190602001909291905050506040518363ffffffff1660e01b8152600401808381526020018281526020019250505060206040518083038186803b1580156114d857600080fd5b505af41580156114ec573d6000803e3d6000fd5b505050506040513d602081101561150257600080fd5b810190808051906020019092919050505090508273__fixedLib______________________________63f598423684846040518363ffffffff1660e01b8152600401808381526020018281526020019250505060206040518083038186803b15801561156d57600080fd5b505af4158015611581573d6000803e3d6000fd5b505050506040513d602081101561159757600080fd5b81019080805190602001909291905050500295505050505050919050565b6000806a94e47b8d6817153400000083816115cc57fe5b07905060006b0129c8f71ad02e2a6800000084816115e657fe5b0790506000600190506a94e47b8d68171534000000821315611626577fffffffffffffffffffffffffffffffffffffffffffffffffffffffffffffffff90505b600073__fixedLib______________________________633c4308a873__fixedLib______________________________633c4308a86a034f086f3b33b684000000886040518363ffffffff1660e01b8152600401808381526020018281526020019250505060206040518083038186803b1580156116a457600080fd5b505af41580156116b8573d6000803e3d6000fd5b505050506040513d60208110156116ce57600080fd5b810190808051906020019092919050505073__fixedLib______________________________63b93ea8126a94e47b8d68171534000000896040518363ffffffff1660e01b8152600401808381526020018281526020019250505060206040518083038186803b15801561174157600080fd5b505af4158015611755573d6000803e3d6000fd5b505050506040513d602081101561176b57600080fd5b81019080805190602001909291905050506040518363ffffffff1660e01b8152600401808381526020018281526020019250505060206040518083038186803b1580156117b757600080fd5b505af41580156117cb573d6000803e3d6000fd5b505050506040513d60208110156117e157600080fd5b81019080805190602001909291905050509050600073__fixedLib______________________________63b93ea8126b82dcd097487c49a2b400000073__fixedLib______________________________633c4308a88973__fixedLib______________________________63b93ea8126a94e47b8d681715340000008d6040518363ffffffff1660e01b8152600401808381526020018281526020019250505060206040518083038186803b15801561189a57600080fd5b505af41580156118ae573d6000803e3d6000fd5b505050506040513d60208110156118c457600080fd5b81019080805190602001909291905050506040518363ffffffff1660e01b8152600401808381526020018281526020019250505060206040518083038186803b15801561191057600080fd5b505af4158015611924573d6000803e3d6000fd5b505050506040513d602081101561193a57600080fd5b81019080805190602001909291905050506040518363ffffffff1660e01b8152600401808381526020018281526020019250505060206040518083038186803b15801561198657600080fd5b505af415801561199a573d6000803e3d6000fd5b505050506040513d60208110156119b057600080fd5b810190808051906020019092919050505090508273__fixedLib______________________________63f598423684846040518363ffffffff1660e01b8152600401808381526020018281526020019250505060206040518083038186803b158015611a1b57600080fd5b505af4158015611a2f573d6000803e3d6000fd5b505050506040513d6020811015611a4557600080fd5b81019080805190602001909291905050500295505050505050919050565b6000620186a0611a71610b5c565b8381611a7957fe5b071315611aab57620186a06002611a8e610b5c565b81611a9557fe5b058381611a9e57fe5b071215611aaa57600080fd5b5b73__fixedLib______________________________63f5984236611ace84610f4e565b611ad785610bcd565b6040518363ffffffff1660e01b8152600401808381526020018281526020019250505060206040518083038186803b158015611b1257600080fd5b505af4158015611b26573d6000803e3d6000fd5b505050506040513d6020811015611b3c57600080fd5b8101908080519060200190929190505050905091905056fea265627a7a7231582012e8d08cbacc2d55fd420bf39cbb6bb6069cbcd68630171b895e9bc0b410b66e64736f6c63430005100032",
  "source": "pragma solidity >=0.4.22 <0.7.0;\n\nimport \"./fixedLib.sol\";\nimport \"./ExponentLib.sol\";\n\n\nlibrary trigLib{\n    \n    /**\n     * Fixed Point version of Pi\n    */\n    function fixedPi() public pure returns(int256 result ) {\n        return 3141592653589793238462643;\n    }\n    \n    /**\n     * hardcoded fixed Point version of Pi / 2\n    */\n    function fixedHalfPi() public pure returns(int256 result) {\n        return 1570796326794896619231321;\n    }\n\n    /**\n     * hardcoded fixed Point version of Pi / 4\n    */ \n    function fixedQuarterPi() public pure returns(int256 result) {\n        return 785398163397448309615660;\n    }\n\n     /**\n     * hardcoded fixed Point version of Pi / 3\n    */\n    function fixedThirdPi() public pure returns (int256 result) {\n        return 1047197551196597746154214;\n    }\n    /**\n     * Low cost sin approxiomation using Bhaskara's function for the approximation of sin \n     * returns the approximation in int256 fixed point integer form\n     * @param _x radian value as an positive int256 fixed point integer\n     */ \n    function sin(uint256 _x) public pure returns(int256 result) {\n        int256 mod2Pi =  int256(_x) % (2 * fixedPi());\n        int256 x = (int256(_x) % fixedPi());\n        int256 multiplier = 1;\n        if(mod2Pi > fixedPi()) {\n            multiplier = -1;\n        }\n        int256 numerator = (fixedLib.multiply(fixedLib.multiply(16000000000000000000000000, x), fixedLib.subtract( fixedPi(), x)));\n        int256 denominator = (  fixedLib.subtract(fixedLib.multiply(fixedLib.multiply(5000000000000000000000000, fixedPi()),  fixedPi()), \n            (fixedLib.multiply(fixedLib.multiply(4000000000000000000000000, x), fixedLib.subtract(fixedPi(), x)))      ));\n         return  (fixedLib.divide(numerator, denominator) * multiplier);\n    }\n    \n    \n    /**\n    * Low cost cos approximation using a translation of sin function\n    * returns the approximation in int256 fixed point integer form\n    * @param _y radian value as an postive int256 fixed point integer\n     */\n    function cos(uint256 _y) public pure returns(int256 result) {\n        \n        //cos(x) = sin(pi/2 + x)\n        uint256 mod2Pi =  uint256(int256(_y) % (fixedLib.multiply(2000000000000000000000000, fixedPi())));\n        uint256 halfPi = uint256(fixedLib.divide(fixedPi(), 2000000000000000000000000));\n        uint256 sum = (halfPi + mod2Pi);\n        return (sin(sum));\n    }\n    \n    /**\n    * Low cost tan approximation using the library's sin, cos and division function.\n    * returns the approximation in int256 fixed point integer form\n    * @param x radian value as an postive int256 fixed point integer that is defined in the domain\n     */\n    function tan(uint256 x) public pure returns(int256 result) {\n       if( (int256(x) % fixedPi()) > 100000) {\n           require( int256(x) % (fixedPi() /2) >= 100000 );\n       } \n       return fixedLib.divide(sin(x), cos(x));\n        \n    }\n    \n    /**\n    * Low cost csc approximation using library's reciprocoal and sin function.\n    * returns the approximation in int256 fixed point integer form\n    * @param x radian value as an postive int256 fixed point integer that is defined in the domain\n     */\n    function csc(uint256 x) public pure returns(int256 result) {\n        require( int256(x) % fixedPi() != 0 );\n        return fixedLib.reciprocal(sin(x));\n    }\n    \n    /**\n    * Low cost csc approximation using library's reciprocoal and cos function. \n    * returns the approximation in int256 fixed point integer form\n    * @param x radian value as an postive int256 fixed point integer that is defined in the domain\n     */\n    function sec(uint256 x) public pure returns(int256 result) {\n         if((int256(x) % fixedPi())> 100000) {\n           require( int256(x) % (fixedPi() /2) >= 100000 );\n       }\n        return fixedLib.reciprocal(cos(x));\n    }\n    \n    /**\n    * Low cost cot approximation using the library's sin, cos and division function. \n    * returns the approximation in int256 fixed point integer form\n    * @param x radian value as an postive int256 fixed point integer thatis definedin the domain\n     */\n    function cot(uint256 x) public pure returns(int256 result) {\n        require((int256(x) % fixedPi()) != 0, \"Not valid in the domain\");\n        return fixedLib.divide(cos(x), sin(x));\n    }\n    \n    \n    ////////////////////////////////////////////////////////\n    \n    \n    ////////////////////////////////////////////////////////\n    \n    /**\n    * Integer Version NOT IN FIXED POINT FORM\n    * sin approximation from degrees\n    * returns the approximation in int256 fixed point integer form\n    * @param _x degree integer value as a postive uint16 NOT IN FIXED POINT FORM\n     */\n    function SinDegreeInt(uint16 _x) public pure returns(int256 result)  {\n      uint256 x = uint256(_x) * (10 ** 24);\n     return sinDegree(x);\n      \n    }\n    \n    \n    \n\n    /**\n    * Fixed Point version suitable for decimals\n    * sin approximation from degrees suitable for decimals\n    * returns the approximation in int256 fixed point integer form\n    * @param x degree integer value as a postive int256 fixed point integer\n     */\n    function sinDegree(uint256 x) public pure returns(int256 result)  {\n      int256 mod180x = int256(x) % 180000000000000000000000000;\n      int256 mod360x = int256(x) % 360000000000000000000000000;\n      int256 multiplier = 1;\n      if(mod360x > 180000000000000000000000000 ) {\n          multiplier = -1;\n      }\n      \n      int256 numerator = fixedLib.multiply(fixedLib.multiply(4000000000000000000000000, mod180x),\n        fixedLib.subtract(180000000000000000000000000, mod180x));\n      int256 denominator = fixedLib.subtract(40500000000000000000000000000,\n        fixedLib.multiply(mod180x, fixedLib.subtract(180000000000000000000000000, mod180x)) );\n      return (fixedLib.divide(numerator, denominator) * multiplier);\n      \n    }\n    \n    /**\n    * cos approximation from degrees, suitable for decimals\n    * returns the approximation in int256 fixed point integer form\n    * @param x degree integer value as a postive int256 fixed point integer\n     */\n    function cosDegree(uint256 x) public pure returns(int256 result) {\n        \n      int256 mod360x = int256(x) % 360000000000000000000000000;\n      int256 multiplier = 1;\n      if(mod360x > 90000000000000000000000000 && mod360x < 270000000000000000000000000) {\n          multiplier = -1;\n      }\n        \n        uint256 halfPi = 90000000000000000000000000;\n        uint256 sum =  x + halfPi;\n        uint256 mod180x = sum % 180000000000000000000000000;\n        return (sinDegree(mod180x) * multiplier);\n        \n    }\n    \n     /**\n    * tan approximation from degrees, suitable for decimals\n    * returns the approximation in int256 fixed point integer form\n    * @param x degree value as a postive int256 fixed point integer that is defined in the domain\n     */\n    function tanDegree(uint256 x) public pure returns(int256 result) {\n       if((int256(x) % 18000000000000000000000000) > 100000) {\n           require(int256(x) % (90000000000000000000000000) >= 100000, \"Not valid in the domain\");\n       }\n        return fixedLib.divide(sinDegree(x), cosDegree(x));\n    }\n    \n     /**\n    * sec approximation from degrees, suitable for decimals\n    * returns the approximation in int256 fixed point integer form\n    * @param x degree value as a postive int256 fixed point integer that is defined in the domain\n     */\n     function secDegree(uint256 x) public pure returns(int256 result) {\n      if((int256(x) % 18000000000000000000000000) > 100000) {\n           require(int256(x) % (90000000000000000000000000) >= 100000, \"Not valid in the domain\" );\n       }\n         return fixedLib.reciprocal(cosDegree(x));\n    }\n    \n     /**\n    * csc approximation from degrees, suitable for decimals\n    * returns the approximation in int256 fixed point integer form\n    * @param x degree value as a postive int256 fixed point integer that is defined in the domain\n     */\n     function cscDegree(uint256 x) public pure returns(int256 result) {\n         require((x % 180000000000000000000000000) != 0,  \"Not valid in the domain\");\n         return fixedLib.reciprocal(sinDegree(x));\n    }\n    \n     /**\n    * cot approximation from degrees, suitable for decimals\n    * returns the approximation in int256 fixed point integer form\n    * @param x degree value as a postive int256 fixed point integer that is defined in the domain\n     */\n     function cotDegree(uint256 x) public pure returns(int256 result) {\n        require((x % 180000000000000000000000000) != 0, \"Not valid in the domain\");\n        return fixedLib.divide(cosDegree(x), sinDegree(x));\n    }\n    \n    \n}",
  "sourcePath": "/root/blockchain/FixedLib/contracts/trigLib.sol",
  "compiler": {
    "name": "solc",
    "version": "0.5.16+commit.9c3226ce.Emscripten.clang"
  },
  "schemaVersion": "3.1.0",
  "updatedAt": "2020-05-20T00:16:24.522Z",
  "devdoc": {
    "methods": {
      "SinDegreeInt(uint16)": {
        "params": {
          "_x": "degree integer value as a postive uint16 NOT IN FIXED POINT FORM"
        }
      },
      "cos(uint256)": {
        "params": {
          "_y": "radian value as an postive int256 fixed point integer"
        }
      },
      "cosDegree(uint256)": {
        "params": {
          "x": "degree integer value as a postive int256 fixed point integer"
        }
      },
      "cot(uint256)": {
        "params": {
          "x": "radian value as an postive int256 fixed point integer thatis definedin the domain"
        }
      },
      "cotDegree(uint256)": {
        "params": {
          "x": "degree value as a postive int256 fixed point integer that is defined in the domain"
        }
      },
      "csc(uint256)": {
        "params": {
          "x": "radian value as an postive int256 fixed point integer that is defined in the domain"
        }
      },
      "cscDegree(uint256)": {
        "params": {
          "x": "degree value as a postive int256 fixed point integer that is defined in the domain"
        }
      },
      "sec(uint256)": {
        "params": {
          "x": "radian value as an postive int256 fixed point integer that is defined in the domain"
        }
      },
      "secDegree(uint256)": {
        "params": {
          "x": "degree value as a postive int256 fixed point integer that is defined in the domain"
        }
      },
      "sin(uint256)": {
        "params": {
          "_x": "radian value as an positive int256 fixed point integer"
        }
      },
      "sinDegree(uint256)": {
        "params": {
          "x": "degree integer value as a postive int256 fixed point integer"
        }
      },
      "tan(uint256)": {
        "params": {
          "x": "radian value as an postive int256 fixed point integer that is defined in the domain"
        }
      },
      "tanDegree(uint256)": {
        "params": {
          "x": "degree value as a postive int256 fixed point integer that is defined in the domain"
        }
      }
    }
  },
  "userdoc": {
    "methods": {
      "SinDegreeInt(uint16)": {
        "notice": "Integer Version NOT IN FIXED POINT FORM sin approximation from degrees returns the approximation in int256 fixed point integer form"
      },
      "cos(uint256)": {
        "notice": "Low cost cos approximation using a translation of sin function returns the approximation in int256 fixed point integer form"
      },
      "cosDegree(uint256)": {
        "notice": "cos approximation from degrees, suitable for decimals returns the approximation in int256 fixed point integer form"
      },
      "cot(uint256)": {
        "notice": "Low cost cot approximation using the library's sin, cos and division function.  returns the approximation in int256 fixed point integer form"
      },
      "cotDegree(uint256)": {
        "notice": "cot approximation from degrees, suitable for decimals returns the approximation in int256 fixed point integer form"
      },
      "csc(uint256)": {
        "notice": "Low cost csc approximation using library's reciprocoal and sin function. returns the approximation in int256 fixed point integer form"
      },
      "cscDegree(uint256)": {
        "notice": "csc approximation from degrees, suitable for decimals returns the approximation in int256 fixed point integer form"
      },
      "fixedHalfPi()": {
        "notice": "hardcoded fixed Point version of Pi / 2"
      },
      "fixedPi()": {
        "notice": "Fixed Point version of Pi"
      },
      "fixedQuarterPi()": {
        "notice": "hardcoded fixed Point version of Pi / 4"
      },
      "fixedThirdPi()": {
        "notice": "hardcoded fixed Point version of Pi / 3"
      },
      "sec(uint256)": {
        "notice": "Low cost csc approximation using library's reciprocoal and cos function.  returns the approximation in int256 fixed point integer form"
      },
      "secDegree(uint256)": {
        "notice": "sec approximation from degrees, suitable for decimals returns the approximation in int256 fixed point integer form"
      },
      "sin(uint256)": {
        "notice": "Low cost sin approxiomation using Bhaskara's function for the approximation of sin  returns the approximation in int256 fixed point integer form"
      },
      "sinDegree(uint256)": {
        "notice": "Fixed Point version suitable for decimals sin approximation from degrees suitable for decimals returns the approximation in int256 fixed point integer form"
      },
      "tan(uint256)": {
        "notice": "Low cost tan approximation using the library's sin, cos and division function. returns the approximation in int256 fixed point integer form"
      },
      "tanDegree(uint256)": {
        "notice": "tan approximation from degrees, suitable for decimals returns the approximation in int256 fixed point integer form"
      }
    }
  }
}